
systick_tim.elf:     file format elf32-littlearm


Disassembly of section .text:

08000180 <__do_global_dtors_aux>:
 8000180:	b510      	push	{r4, lr}
 8000182:	4c05      	ldr	r4, [pc, #20]	; (8000198 <__do_global_dtors_aux+0x18>)
 8000184:	7823      	ldrb	r3, [r4, #0]
 8000186:	b933      	cbnz	r3, 8000196 <__do_global_dtors_aux+0x16>
 8000188:	4b04      	ldr	r3, [pc, #16]	; (800019c <__do_global_dtors_aux+0x1c>)
 800018a:	b113      	cbz	r3, 8000192 <__do_global_dtors_aux+0x12>
 800018c:	4804      	ldr	r0, [pc, #16]	; (80001a0 <__do_global_dtors_aux+0x20>)
 800018e:	f3af 8000 	nop.w
 8000192:	2301      	movs	r3, #1
 8000194:	7023      	strb	r3, [r4, #0]
 8000196:	bd10      	pop	{r4, pc}
 8000198:	20000000 	.word	0x20000000
 800019c:	00000000 	.word	0x00000000
 80001a0:	0800049c 	.word	0x0800049c

080001a4 <frame_dummy>:
 80001a4:	4b08      	ldr	r3, [pc, #32]	; (80001c8 <frame_dummy+0x24>)
 80001a6:	b510      	push	{r4, lr}
 80001a8:	b11b      	cbz	r3, 80001b2 <frame_dummy+0xe>
 80001aa:	4908      	ldr	r1, [pc, #32]	; (80001cc <frame_dummy+0x28>)
 80001ac:	4808      	ldr	r0, [pc, #32]	; (80001d0 <frame_dummy+0x2c>)
 80001ae:	f3af 8000 	nop.w
 80001b2:	4808      	ldr	r0, [pc, #32]	; (80001d4 <frame_dummy+0x30>)
 80001b4:	6803      	ldr	r3, [r0, #0]
 80001b6:	b903      	cbnz	r3, 80001ba <frame_dummy+0x16>
 80001b8:	bd10      	pop	{r4, pc}
 80001ba:	4b07      	ldr	r3, [pc, #28]	; (80001d8 <frame_dummy+0x34>)
 80001bc:	2b00      	cmp	r3, #0
 80001be:	d0fb      	beq.n	80001b8 <frame_dummy+0x14>
 80001c0:	e8bd 4010 	ldmia.w	sp!, {r4, lr}
 80001c4:	4718      	bx	r3
 80001c6:	bf00      	nop
 80001c8:	00000000 	.word	0x00000000
 80001cc:	20000004 	.word	0x20000004
 80001d0:	0800049c 	.word	0x0800049c
 80001d4:	20000000 	.word	0x20000000
 80001d8:	00000000 	.word	0x00000000

080001dc <ADC1_2_IRQHandler>:
   // __libc_init_array();
    main();
}

 __attribute__((weak))
void Default_Handler(void){
 80001dc:	e7fe      	b.n	80001dc <ADC1_2_IRQHandler>
 80001de:	bf00      	nop

080001e0 <Reset_handler>:
};


//void init_runtime(void)
void Reset_handler(void)
{
 80001e0:	b508      	push	{r3, lr}
     __asm("    ldr    sp, =_estack");
 80001e2:	f8df d044 	ldr.w	sp, [pc, #68]	; 8000228 <Reset_handler+0x48>

    //copy data from flash to ram
   char *flash_src =  &_sidata;
   char *ram_dest = &_sdata;
 80001e6:	4b0b      	ldr	r3, [pc, #44]	; (8000214 <Reset_handler+0x34>)
void Reset_handler(void)
{
     __asm("    ldr    sp, =_estack");

    //copy data from flash to ram
   char *flash_src =  &_sidata;
 80001e8:	4a0b      	ldr	r2, [pc, #44]	; (8000218 <Reset_handler+0x38>)
   char *ram_dest = &_sdata;

   while(ram_dest < &_edata)
 80001ea:	e003      	b.n	80001f4 <Reset_handler+0x14>
	*ram_dest ++ = *flash_src++;
 80001ec:	7811      	ldrb	r1, [r2, #0]
 80001ee:	7019      	strb	r1, [r3, #0]
 80001f0:	3301      	adds	r3, #1
 80001f2:	3201      	adds	r2, #1

    //copy data from flash to ram
   char *flash_src =  &_sidata;
   char *ram_dest = &_sdata;

   while(ram_dest < &_edata)
 80001f4:	4909      	ldr	r1, [pc, #36]	; (800021c <Reset_handler+0x3c>)
 80001f6:	428b      	cmp	r3, r1
 80001f8:	d3f8      	bcc.n	80001ec <Reset_handler+0xc>
 80001fa:	4b09      	ldr	r3, [pc, #36]	; (8000220 <Reset_handler+0x40>)
 80001fc:	e002      	b.n	8000204 <Reset_handler+0x24>
	*ram_dest ++ = *flash_src++;

    //init bss with 0 
    for(ram_dest = &_sbss; ram_dest < &_ebss; ram_dest++ )
	*ram_dest  =  0x0;
 80001fe:	2200      	movs	r2, #0
 8000200:	f803 2b01 	strb.w	r2, [r3], #1

   while(ram_dest < &_edata)
	*ram_dest ++ = *flash_src++;

    //init bss with 0 
    for(ram_dest = &_sbss; ram_dest < &_ebss; ram_dest++ )
 8000204:	4a07      	ldr	r2, [pc, #28]	; (8000224 <Reset_handler+0x44>)
 8000206:	4293      	cmp	r3, r2
 8000208:	d3f9      	bcc.n	80001fe <Reset_handler+0x1e>
	*ram_dest  =  0x0;

    SystemInit();	
 800020a:	f000 f80f 	bl	800022c <SystemInit>
   // __libc_init_array();
    main();
 800020e:	f000 f8e7 	bl	80003e0 <main>
 8000212:	bd08      	pop	{r3, pc}
 8000214:	20000000 	.word	0x20000000
 8000218:	08000530 	.word	0x08000530
 800021c:	20000000 	.word	0x20000000
 8000220:	20000000 	.word	0x20000000
 8000224:	2000001c 	.word	0x2000001c
 8000228:	20018000 	.word	0x20018000

0800022c <SystemInit>:
	
	RCC_CR |=  1<<0; //enable mis clk;
	while( (RCC_CR & 0x02) ==0);   //wait until  MSI clk enabled;
#elif (SYS_CLK_SOURCE == 1) 
	
	RCC_CR |= 1 << 16;  //enable HSE on 
 800022c:	4a1e      	ldr	r2, [pc, #120]	; (80002a8 <SystemInit+0x7c>)
 800022e:	6813      	ldr	r3, [r2, #0]
 8000230:	f443 3380 	orr.w	r3, r3, #65536	; 0x10000
 8000234:	6013      	str	r3, [r2, #0]
	//RCC_CR |= 1 << 18;  //bypass vco 
	while(   (RCC_CR &  (1<<17)) == 0 );
 8000236:	4b1c      	ldr	r3, [pc, #112]	; (80002a8 <SystemInit+0x7c>)
 8000238:	681b      	ldr	r3, [r3, #0]
 800023a:	f413 3f00 	tst.w	r3, #131072	; 0x20000
 800023e:	d0fa      	beq.n	8000236 <SystemInit+0xa>
	
	RCC_PLLCFGR |=  0x3 << 0;   //select HSE as PLL source
 8000240:	4b1a      	ldr	r3, [pc, #104]	; (80002ac <SystemInit+0x80>)
 8000242:	681a      	ldr	r2, [r3, #0]
 8000244:	f042 0203 	orr.w	r2, r2, #3
 8000248:	601a      	str	r2, [r3, #0]
	RCC_PLLCFGR &=  ~(0x7<<4);   //config  pll as source /1    8M/1 ===8M
 800024a:	681a      	ldr	r2, [r3, #0]
 800024c:	f022 0270 	bic.w	r2, r2, #112	; 0x70
 8000250:	601a      	str	r2, [r3, #0]
	RCC_PLLCFGR &=  ~(0x3f<<8);
 8000252:	681a      	ldr	r2, [r3, #0]
 8000254:	f422 527c 	bic.w	r2, r2, #16128	; 0x3f00
 8000258:	601a      	str	r2, [r3, #0]
	RCC_PLLCFGR |=  10 << 8;    //config  clk as source X10   8Mx10 == 80Mhz
 800025a:	681a      	ldr	r2, [r3, #0]
 800025c:	f442 6220 	orr.w	r2, r2, #2560	; 0xa00
 8000260:	601a      	str	r2, [r3, #0]
	RCC_PLLCFGR |=  0x1 << 24;   //enable R clock 
 8000262:	681a      	ldr	r2, [r3, #0]
 8000264:	f042 7280 	orr.w	r2, r2, #16777216	; 0x1000000
 8000268:	601a      	str	r2, [r3, #0]
	RCC_PLLCFGR &=  ~(0x3 << 25);  //config clk as soruce /2   80Mhz/2==40Hz;
 800026a:	681a      	ldr	r2, [r3, #0]
 800026c:	f022 62c0 	bic.w	r2, r2, #100663296	; 0x6000000
 8000270:	601a      	str	r2, [r3, #0]
	
	RCC_CR  |=  0x1<< 24;   //enable pll clk source
 8000272:	4a0d      	ldr	r2, [pc, #52]	; (80002a8 <SystemInit+0x7c>)
 8000274:	6813      	ldr	r3, [r2, #0]
 8000276:	f043 7380 	orr.w	r3, r3, #16777216	; 0x1000000
 800027a:	6013      	str	r3, [r2, #0]
	while(  ( RCC_CR & (0x1 <<25) ) == 0 ); //wait unitl pllclk ready
 800027c:	4b0a      	ldr	r3, [pc, #40]	; (80002a8 <SystemInit+0x7c>)
 800027e:	681b      	ldr	r3, [r3, #0]
 8000280:	f013 7f00 	tst.w	r3, #33554432	; 0x2000000
 8000284:	d0fa      	beq.n	800027c <SystemInit+0x50>

	RCC_CFGR |=  0x01 << 24;  //select sys_clk as mco output.
 8000286:	4b0a      	ldr	r3, [pc, #40]	; (80002b0 <SystemInit+0x84>)
 8000288:	681a      	ldr	r2, [r3, #0]
 800028a:	f042 7280 	orr.w	r2, r2, #16777216	; 0x1000000
 800028e:	601a      	str	r2, [r3, #0]

	RCC_CFGR |=  0x3 << 0;  //select pll as sys_clk source
 8000290:	681a      	ldr	r2, [r3, #0]
 8000292:	f042 0203 	orr.w	r2, r2, #3
 8000296:	601a      	str	r2, [r3, #0]
	while(   ( RCC_CFGR & (0x3 <<2))  !=  (0x3 << 2) );
 8000298:	4b05      	ldr	r3, [pc, #20]	; (80002b0 <SystemInit+0x84>)
 800029a:	681b      	ldr	r3, [r3, #0]
 800029c:	f003 030c 	and.w	r3, r3, #12
 80002a0:	2b0c      	cmp	r3, #12
 80002a2:	d1f9      	bne.n	8000298 <SystemInit+0x6c>
#endif
}
 80002a4:	4770      	bx	lr
 80002a6:	bf00      	nop
 80002a8:	40021000 	.word	0x40021000
 80002ac:	4002100c 	.word	0x4002100c
 80002b0:	40021008 	.word	0x40021008

080002b4 <my_fputc>:


int my_fputc(int ch)
{
    while((USART1_ISR & (0x1 <<6)) == 0); 
 80002b4:	4b03      	ldr	r3, [pc, #12]	; (80002c4 <my_fputc+0x10>)
 80002b6:	681b      	ldr	r3, [r3, #0]
 80002b8:	f013 0f40 	tst.w	r3, #64	; 0x40
 80002bc:	d0fa      	beq.n	80002b4 <my_fputc>

    USART1_TDR = ch;
 80002be:	4b02      	ldr	r3, [pc, #8]	; (80002c8 <my_fputc+0x14>)
 80002c0:	6018      	str	r0, [r3, #0]
    return ch;
}
 80002c2:	4770      	bx	lr
 80002c4:	4001381c 	.word	0x4001381c
 80002c8:	40013828 	.word	0x40013828

080002cc <my_fputs>:


int my_fputs(char *s){
 80002cc:	b510      	push	{r4, lr}
 80002ce:	4604      	mov	r4, r0
	for(;*s;s++)  
 80002d0:	e002      	b.n	80002d8 <my_fputs+0xc>
		my_fputc( *s);
 80002d2:	f7ff ffef 	bl	80002b4 <my_fputc>
    return ch;
}


int my_fputs(char *s){
	for(;*s;s++)  
 80002d6:	3401      	adds	r4, #1
 80002d8:	7820      	ldrb	r0, [r4, #0]
 80002da:	2800      	cmp	r0, #0
 80002dc:	d1f9      	bne.n	80002d2 <my_fputs+0x6>
		my_fputc( *s);
	return 0;
}
 80002de:	bd10      	pop	{r4, pc}

080002e0 <uart_init>:
}

void uart_init(){
	
	//gpio init
	RCC_AHB2ENR   |= 1<<0;     //enable gpioa clock;
 80002e0:	4a28      	ldr	r2, [pc, #160]	; (8000384 <uart_init+0xa4>)
 80002e2:	6813      	ldr	r3, [r2, #0]
 80002e4:	f043 0301 	orr.w	r3, r3, #1
 80002e8:	6013      	str	r3, [r2, #0]
	
	GPIOA_MODER   &=  ~(0x3 <<18);
 80002ea:	f04f 4390 	mov.w	r3, #1207959552	; 0x48000000
 80002ee:	681a      	ldr	r2, [r3, #0]
 80002f0:	f422 2240 	bic.w	r2, r2, #786432	; 0xc0000
 80002f4:	601a      	str	r2, [r3, #0]
	GPIOA_MODER   &=  ~(0x3 <<20);
 80002f6:	681a      	ldr	r2, [r3, #0]
 80002f8:	f422 1240 	bic.w	r2, r2, #3145728	; 0x300000
 80002fc:	601a      	str	r2, [r3, #0]
	GPIOA_MODER   |=  (0x2 << 18)| ( 0x2 << 20) ; //config gpio 9,10 as alternate function
 80002fe:	681a      	ldr	r2, [r3, #0]
 8000300:	f442 1220 	orr.w	r2, r2, #2621440	; 0x280000
 8000304:	601a      	str	r2, [r3, #0]
	
	
	GPIOA_OTYPER  &= ~( 1<<9);   //push pull
 8000306:	3304      	adds	r3, #4
 8000308:	681a      	ldr	r2, [r3, #0]
 800030a:	f422 7200 	bic.w	r2, r2, #512	; 0x200
 800030e:	601a      	str	r2, [r3, #0]
	GPIOA_OTYPER  &= ~( 1<<10);  //push pull
 8000310:	681a      	ldr	r2, [r3, #0]
 8000312:	f422 6280 	bic.w	r2, r2, #1024	; 0x400
 8000316:	601a      	str	r2, [r3, #0]
	GPIOA_OSPEEDR |=  (0x3 << 18) | (0x03 <<20)  ;   //very high speed;
 8000318:	4a1b      	ldr	r2, [pc, #108]	; (8000388 <uart_init+0xa8>)
 800031a:	6813      	ldr	r3, [r2, #0]
 800031c:	f443 1370 	orr.w	r3, r3, #3932160	; 0x3c0000
 8000320:	6013      	str	r3, [r2, #0]
	GPIOA_AFRH    |=  (0x7<<4) | (0x7<<8);   //gpio9,10
 8000322:	321c      	adds	r2, #28
 8000324:	6813      	ldr	r3, [r2, #0]
 8000326:	f443 63ee 	orr.w	r3, r3, #1904	; 0x770
 800032a:	6013      	str	r3, [r2, #0]
	
	
	//uart init
	//Program the Baud Rate, Word Length, Stop Bit, Parity, Prescaler value , Hardware
    //    flow control and Mode (Receiver/Transmitter) in the huart handle Init structure.
        RCC_APB2ENR   |= 1<<14;   //enable usart1 clock;
 800032c:	4a17      	ldr	r2, [pc, #92]	; (800038c <uart_init+0xac>)
 800032e:	6813      	ldr	r3, [r2, #0]
 8000330:	f443 4380 	orr.w	r3, r3, #16384	; 0x4000
 8000334:	6013      	str	r3, [r2, #0]
	
	USART1_CR1 = 0;	
 8000336:	4b16      	ldr	r3, [pc, #88]	; (8000390 <uart_init+0xb0>)
 8000338:	2200      	movs	r2, #0
 800033a:	601a      	str	r2, [r3, #0]
	USART1_CR1  &= ~(0x1 << 12);   //M0  
 800033c:	681a      	ldr	r2, [r3, #0]
 800033e:	f422 5280 	bic.w	r2, r2, #4096	; 0x1000
 8000342:	601a      	str	r2, [r3, #0]
	USART1_CR1  &= ~(0x1 << 28);   //M1    M1:M0==0  8 bit length;
 8000344:	681a      	ldr	r2, [r3, #0]
 8000346:	f022 5280 	bic.w	r2, r2, #268435456	; 0x10000000
 800034a:	601a      	str	r2, [r3, #0]
	
	//USART1_CR1  |=  (1 << 15);       //oversameple  8 enabled;
	USART1_CR1  &=  ~(0x1 <<10);       //none  parity;
 800034c:	681a      	ldr	r2, [r3, #0]
 800034e:	f422 6280 	bic.w	r2, r2, #1024	; 0x400
 8000352:	601a      	str	r2, [r3, #0]
	USART1_CR2  &= ~(0x03 << 12);      //1 stop bit;
 8000354:	490f      	ldr	r1, [pc, #60]	; (8000394 <uart_init+0xb4>)
 8000356:	680a      	ldr	r2, [r1, #0]
 8000358:	f422 5240 	bic.w	r2, r2, #12288	; 0x3000
 800035c:	600a      	str	r2, [r1, #0]
	USART1_CR3  &=  ~(0x3 << 8);       //disable hw flow;
 800035e:	3104      	adds	r1, #4
 8000360:	680a      	ldr	r2, [r1, #0]
 8000362:	f422 7240 	bic.w	r2, r2, #768	; 0x300
 8000366:	600a      	str	r2, [r1, #0]
	
	//USART1_BRR = 0x2b3; //115200 baud rate;  // (2*40000000/115200) ===694.44(0x2b6h)     0x2b  and  (6>>1)  ==   2b3  for oversameple 8
	USART1_BRR = 0x15b; //115200 baud rate;  // (40 000 000/115200) ===347(0x15bh)     for oversameple 16
 8000368:	f240 115b 	movw	r1, #347	; 0x15b
 800036c:	4a0a      	ldr	r2, [pc, #40]	; (8000398 <uart_init+0xb8>)
 800036e:	6011      	str	r1, [r2, #0]
	
	USART1_CR1  |=  (0x1 << 2 ) | (0x1 <<3) ;  //enable tx&rx;
 8000370:	681a      	ldr	r2, [r3, #0]
 8000372:	f042 020c 	orr.w	r2, r2, #12
 8000376:	601a      	str	r2, [r3, #0]
	USART1_CR1 |= 0x1 << 0;   //enable usart;
 8000378:	681a      	ldr	r2, [r3, #0]
 800037a:	f042 0201 	orr.w	r2, r2, #1
 800037e:	601a      	str	r2, [r3, #0]
 8000380:	4770      	bx	lr
 8000382:	bf00      	nop
 8000384:	4002104c 	.word	0x4002104c
 8000388:	48000008 	.word	0x48000008
 800038c:	40021060 	.word	0x40021060
 8000390:	40013800 	.word	0x40013800
 8000394:	40013804 	.word	0x40013804
 8000398:	4001380c 	.word	0x4001380c

0800039c <light_red_led>:
}

void light_red_led(){
	
	//enable gpioe  clock
	RCC_AHB2ENR  |= 1<<4;
 800039c:	4a0d      	ldr	r2, [pc, #52]	; (80003d4 <light_red_led+0x38>)
 800039e:	6813      	ldr	r3, [r2, #0]
 80003a0:	f043 0310 	orr.w	r3, r3, #16
 80003a4:	6013      	str	r3, [r2, #0]

	//config  gpioe-7 as output 
	GPIOE_MODER = 0;
 80003a6:	4b0c      	ldr	r3, [pc, #48]	; (80003d8 <light_red_led+0x3c>)
 80003a8:	2200      	movs	r2, #0
 80003aa:	601a      	str	r2, [r3, #0]
	GPIOE_MODER |=  (0x01 << 14);   //output
 80003ac:	681a      	ldr	r2, [r3, #0]
 80003ae:	f442 4280 	orr.w	r2, r2, #16384	; 0x4000
 80003b2:	601a      	str	r2, [r3, #0]
	GPIOE_OTYPER  &=  ~(1<<7);   //push-pull
 80003b4:	4a09      	ldr	r2, [pc, #36]	; (80003dc <light_red_led+0x40>)
 80003b6:	6813      	ldr	r3, [r2, #0]
 80003b8:	f023 0380 	bic.w	r3, r3, #128	; 0x80
 80003bc:	6013      	str	r3, [r2, #0]
	GPIOE_PUPDR &= ~(0x03 <<7);  //no pull up-down.
 80003be:	3208      	adds	r2, #8
 80003c0:	6813      	ldr	r3, [r2, #0]
 80003c2:	f423 73c0 	bic.w	r3, r3, #384	; 0x180
 80003c6:	6013      	str	r3, [r2, #0]
	GPIOE_ODR   &= ~(1<<7); //light  Red led
 80003c8:	3208      	adds	r2, #8
 80003ca:	6813      	ldr	r3, [r2, #0]
 80003cc:	f023 0380 	bic.w	r3, r3, #128	; 0x80
 80003d0:	6013      	str	r3, [r2, #0]
 80003d2:	4770      	bx	lr
 80003d4:	4002104c 	.word	0x4002104c
 80003d8:	48001000 	.word	0x48001000
 80003dc:	48001004 	.word	0x48001004

080003e0 <main>:
}
	
int main(){
 80003e0:	b508      	push	{r3, lr}
	
    SystemInit();
 80003e2:	f7ff ff23 	bl	800022c <SystemInit>
    light_red_led();
 80003e6:	f7ff ffd9 	bl	800039c <light_red_led>
    
    uart_init();
 80003ea:	f7ff ff79 	bl	80002e0 <uart_init>
    my_fputs("hello world\r\n");
 80003ee:	4806      	ldr	r0, [pc, #24]	; (8000408 <main+0x28>)
 80003f0:	f7ff ff6c 	bl	80002cc <my_fputs>
    //systick_init();
    tim6_init();
 80003f4:	f000 f814 	bl	8000420 <tim6_init>
	
	
    while(1){  
	//systick_delay_ms(1000);
	tim6_delay_ms(1000);
 80003f8:	f44f 707a 	mov.w	r0, #1000	; 0x3e8
 80003fc:	f000 f83a 	bl	8000474 <tim6_delay_ms>
        my_fputs("fuxxxxx luart1\r\n");
 8000400:	4802      	ldr	r0, [pc, #8]	; (800040c <main+0x2c>)
 8000402:	f7ff ff63 	bl	80002cc <my_fputs>
 8000406:	e7f7      	b.n	80003f8 <main+0x18>
 8000408:	080004b8 	.word	0x080004b8
 800040c:	080004c8 	.word	0x080004c8

08000410 <SysTick_Handler>:
void systick_delay_ms(uint32_t count){
	while(count--)
		systick_delay_ns(1000);
}

void SysTick_Handler(void){
 8000410:	b508      	push	{r3, lr}
   my_fputs("sys_tick handlered\r\n");
 8000412:	4802      	ldr	r0, [pc, #8]	; (800041c <SysTick_Handler+0xc>)
 8000414:	f7ff ff5a 	bl	80002cc <my_fputs>
 8000418:	bd08      	pop	{r3, pc}
 800041a:	bf00      	nop
 800041c:	080004f0 	.word	0x080004f0

08000420 <tim6_init>:



void tim6_init(){
	
	RCC_APB1ENR1  |=  1 << 4; //tim6 clk enable;
 8000420:	4a0b      	ldr	r2, [pc, #44]	; (8000450 <tim6_init+0x30>)
 8000422:	6813      	ldr	r3, [r2, #0]
 8000424:	f043 0310 	orr.w	r3, r3, #16
 8000428:	6013      	str	r3, [r2, #0]
	
	TIM6_PSC =  40-1;     //0; //no scale  40 mhz apb bus frequency.
 800042a:	2227      	movs	r2, #39	; 0x27
 800042c:	4b09      	ldr	r3, [pc, #36]	; (8000454 <tim6_init+0x34>)
 800042e:	601a      	str	r2, [r3, #0]
	TIM6_ARR = 0xffff;  //can count to 0xffff ns
 8000430:	f64f 72ff 	movw	r2, #65535	; 0xffff
 8000434:	3304      	adds	r3, #4
 8000436:	601a      	str	r2, [r3, #0]
		
	TIM6_CR1  |= (1<<0);  //enable count
 8000438:	4a07      	ldr	r2, [pc, #28]	; (8000458 <tim6_init+0x38>)
 800043a:	6813      	ldr	r3, [r2, #0]
 800043c:	f043 0301 	orr.w	r3, r3, #1
 8000440:	6013      	str	r3, [r2, #0]
	while(    !(TIM6_SR & (1 <<0)) );   //wait hardware enabled
 8000442:	4b06      	ldr	r3, [pc, #24]	; (800045c <tim6_init+0x3c>)
 8000444:	681b      	ldr	r3, [r3, #0]
 8000446:	f013 0f01 	tst.w	r3, #1
 800044a:	d0fa      	beq.n	8000442 <tim6_init+0x22>
}
 800044c:	4770      	bx	lr
 800044e:	bf00      	nop
 8000450:	40021058 	.word	0x40021058
 8000454:	40001028 	.word	0x40001028
 8000458:	40001000 	.word	0x40001000
 800045c:	40001010 	.word	0x40001010

08000460 <tim6_delay_ns>:

void tim6_delay_ns(uint32_t count){

	TIM6_CNT = 0;
 8000460:	2200      	movs	r2, #0
 8000462:	4b03      	ldr	r3, [pc, #12]	; (8000470 <tim6_delay_ns+0x10>)
 8000464:	601a      	str	r2, [r3, #0]
	while(TIM6_CNT < count);
 8000466:	4b02      	ldr	r3, [pc, #8]	; (8000470 <tim6_delay_ns+0x10>)
 8000468:	681b      	ldr	r3, [r3, #0]
 800046a:	4283      	cmp	r3, r0
 800046c:	d3fb      	bcc.n	8000466 <tim6_delay_ns+0x6>
}
 800046e:	4770      	bx	lr
 8000470:	40001024 	.word	0x40001024

08000474 <tim6_delay_ms>:

void tim6_delay_ms(uint32_t count){
 8000474:	b510      	push	{r4, lr}
       while(count--)
 8000476:	e004      	b.n	8000482 <tim6_delay_ms+0xe>
	tim6_delay_ns(1000);
 8000478:	f44f 707a 	mov.w	r0, #1000	; 0x3e8
 800047c:	f7ff fff0 	bl	8000460 <tim6_delay_ns>
	TIM6_CNT = 0;
	while(TIM6_CNT < count);
}

void tim6_delay_ms(uint32_t count){
       while(count--)
 8000480:	4620      	mov	r0, r4
 8000482:	1e44      	subs	r4, r0, #1
 8000484:	2800      	cmp	r0, #0
 8000486:	d1f7      	bne.n	8000478 <tim6_delay_ms+0x4>
	tim6_delay_ns(1000);
}
 8000488:	bd10      	pop	{r4, pc}
 800048a:	bf00      	nop

0800048c <TIM6_DAC_IRQHandler>:

void TIM6_DAC_IRQHandler(void ){
 800048c:	b508      	push	{r3, lr}
	my_fputs("tim6  triggered\r\r");
 800048e:	4802      	ldr	r0, [pc, #8]	; (8000498 <TIM6_DAC_IRQHandler+0xc>)
 8000490:	f7ff ff1c 	bl	80002cc <my_fputs>
 8000494:	bd08      	pop	{r3, pc}
 8000496:	bf00      	nop
 8000498:	08000508 	.word	0x08000508

0800049c <_init>:
 800049c:	b5f8      	push	{r3, r4, r5, r6, r7, lr}
 800049e:	bf00      	nop
 80004a0:	bcf8      	pop	{r3, r4, r5, r6, r7}
 80004a2:	bc08      	pop	{r3}
 80004a4:	469e      	mov	lr, r3
 80004a6:	4770      	bx	lr

080004a8 <_fini>:
 80004a8:	b5f8      	push	{r3, r4, r5, r6, r7, lr}
 80004aa:	bf00      	nop
 80004ac:	bcf8      	pop	{r3, r4, r5, r6, r7}
 80004ae:	bc08      	pop	{r3}
 80004b0:	469e      	mov	lr, r3
 80004b2:	4770      	bx	lr
 80004b4:	0000      	movs	r0, r0
	...
