
hello.elf:     file format elf32-littlearm


Disassembly of section .text:

08000000 <isr_vectors>:
 8000000:	00 80 01 20 69 00 00 08 65 00 00 08 65 00 00 08     ... i...e...e...
 8000010:	65 00 00 08 65 00 00 08 65 00 00 08 00 00 00 00     e...e...e.......
	...
 800002c:	65 00 00 08 65 00 00 08 00 00 00 00 65 00 00 08     e...e.......e...
 800003c:	65 00 00 08 65 00 00 08 65 00 00 08 65 00 00 08     e...e...e...e...
 800004c:	65 00 00 08 65 00 00 08 65 00 00 08 65 00 00 08     e...e...e...e...
 800005c:	65 00 00 08 65 00 00 08                             e...e...

08000064 <BusFault_Handler>:
   // __libc_init_array();
    main();
}

 __attribute__((weak))
void Default_Handler(void){
 8000064:	e7fe      	b.n	8000064 <BusFault_Handler>
 8000066:	bf00      	nop

08000068 <Reset_handler>:
};


//void init_runtime(void)
void Reset_handler(void)
{
 8000068:	b508      	push	{r3, lr}
     __asm("    ldr    sp, =_estack");
 800006a:	f8df d044 	ldr.w	sp, [pc, #68]	; 80000b0 <Reset_handler+0x48>

    //copy data from flash to ram
   char *flash_src =  &_sidata;
   char *ram_dest = &_sdata;
 800006e:	4b0b      	ldr	r3, [pc, #44]	; (800009c <Reset_handler+0x34>)
void Reset_handler(void)
{
     __asm("    ldr    sp, =_estack");

    //copy data from flash to ram
   char *flash_src =  &_sidata;
 8000070:	4a0b      	ldr	r2, [pc, #44]	; (80000a0 <Reset_handler+0x38>)
   char *ram_dest = &_sdata;

   while(ram_dest < &_edata)
 8000072:	e003      	b.n	800007c <Reset_handler+0x14>
	*ram_dest ++ = *flash_src++;
 8000074:	7811      	ldrb	r1, [r2, #0]
 8000076:	7019      	strb	r1, [r3, #0]
 8000078:	3301      	adds	r3, #1
 800007a:	3201      	adds	r2, #1

    //copy data from flash to ram
   char *flash_src =  &_sidata;
   char *ram_dest = &_sdata;

   while(ram_dest < &_edata)
 800007c:	4909      	ldr	r1, [pc, #36]	; (80000a4 <Reset_handler+0x3c>)
 800007e:	428b      	cmp	r3, r1
 8000080:	d3f8      	bcc.n	8000074 <Reset_handler+0xc>
 8000082:	4b09      	ldr	r3, [pc, #36]	; (80000a8 <Reset_handler+0x40>)
 8000084:	e002      	b.n	800008c <Reset_handler+0x24>
	*ram_dest ++ = *flash_src++;

    //init bss with 0 
    for(ram_dest = &_sbss; ram_dest < &_ebss; ram_dest++ )
	*ram_dest  =  0x0;
 8000086:	2200      	movs	r2, #0
 8000088:	f803 2b01 	strb.w	r2, [r3], #1

   while(ram_dest < &_edata)
	*ram_dest ++ = *flash_src++;

    //init bss with 0 
    for(ram_dest = &_sbss; ram_dest < &_ebss; ram_dest++ )
 800008c:	4a07      	ldr	r2, [pc, #28]	; (80000ac <Reset_handler+0x44>)
 800008e:	4293      	cmp	r3, r2
 8000090:	d3f9      	bcc.n	8000086 <Reset_handler+0x1e>
	*ram_dest  =  0x0;

    SystemInit();	
 8000092:	f000 f80f 	bl	80000b4 <SystemInit>
   // __libc_init_array();
    main();
 8000096:	f000 f8f9 	bl	800028c <main>
 800009a:	bd08      	pop	{r3, pc}
 800009c:	20000000 	.word	0x20000000
 80000a0:	080002d4 	.word	0x080002d4
 80000a4:	20000000 	.word	0x20000000
 80000a8:	20000000 	.word	0x20000000
 80000ac:	20000000 	.word	0x20000000
 80000b0:	20018000 	.word	0x20018000

080000b4 <SystemInit>:
	
	RCC_CR |=  1<<0; //enable mis clk;
	while( (RCC_CR & 0x02) ==0);   //wait until  MSI clk enabled;
#elif (SYS_CLK_SOURCE == 1) 
	
	RCC_CR |= 1 << 16;  //enable HSE on 
 80000b4:	4a1e      	ldr	r2, [pc, #120]	; (8000130 <SystemInit+0x7c>)
 80000b6:	6813      	ldr	r3, [r2, #0]
 80000b8:	f443 3380 	orr.w	r3, r3, #65536	; 0x10000
 80000bc:	6013      	str	r3, [r2, #0]
	//RCC_CR |= 1 << 18;  //bypass vco 
	while(   (RCC_CR &  (1<<17)) == 0 );
 80000be:	4b1c      	ldr	r3, [pc, #112]	; (8000130 <SystemInit+0x7c>)
 80000c0:	681b      	ldr	r3, [r3, #0]
 80000c2:	f413 3f00 	tst.w	r3, #131072	; 0x20000
 80000c6:	d0fa      	beq.n	80000be <SystemInit+0xa>
	
	RCC_PLLCFGR |=  0x3 << 0;   //select HSE as PLL source
 80000c8:	4b1a      	ldr	r3, [pc, #104]	; (8000134 <SystemInit+0x80>)
 80000ca:	681a      	ldr	r2, [r3, #0]
 80000cc:	f042 0203 	orr.w	r2, r2, #3
 80000d0:	601a      	str	r2, [r3, #0]
	RCC_PLLCFGR &=  ~(0x7<<4);   //config  pll as source /1    8M/1 ===8M
 80000d2:	681a      	ldr	r2, [r3, #0]
 80000d4:	f022 0270 	bic.w	r2, r2, #112	; 0x70
 80000d8:	601a      	str	r2, [r3, #0]
	RCC_PLLCFGR &=  ~(0x3f<<8);
 80000da:	681a      	ldr	r2, [r3, #0]
 80000dc:	f422 527c 	bic.w	r2, r2, #16128	; 0x3f00
 80000e0:	601a      	str	r2, [r3, #0]
	RCC_PLLCFGR |=  10 << 8;    //config  clk as source X10   8Mx10 == 80Mhz
 80000e2:	681a      	ldr	r2, [r3, #0]
 80000e4:	f442 6220 	orr.w	r2, r2, #2560	; 0xa00
 80000e8:	601a      	str	r2, [r3, #0]
	RCC_PLLCFGR |=  0x1 << 24;   //enable R clock 
 80000ea:	681a      	ldr	r2, [r3, #0]
 80000ec:	f042 7280 	orr.w	r2, r2, #16777216	; 0x1000000
 80000f0:	601a      	str	r2, [r3, #0]
	RCC_PLLCFGR &=  ~(0x3 << 25);  //config clk as soruce /2   80Mhz/2==40Hz;
 80000f2:	681a      	ldr	r2, [r3, #0]
 80000f4:	f022 62c0 	bic.w	r2, r2, #100663296	; 0x6000000
 80000f8:	601a      	str	r2, [r3, #0]
	
	RCC_CR  |=  0x1<< 24;   //enable pll clk source
 80000fa:	4a0d      	ldr	r2, [pc, #52]	; (8000130 <SystemInit+0x7c>)
 80000fc:	6813      	ldr	r3, [r2, #0]
 80000fe:	f043 7380 	orr.w	r3, r3, #16777216	; 0x1000000
 8000102:	6013      	str	r3, [r2, #0]
	while(  ( RCC_CR & (0x1 <<25) ) == 0 ); //wait unitl pllclk ready
 8000104:	4b0a      	ldr	r3, [pc, #40]	; (8000130 <SystemInit+0x7c>)
 8000106:	681b      	ldr	r3, [r3, #0]
 8000108:	f013 7f00 	tst.w	r3, #33554432	; 0x2000000
 800010c:	d0fa      	beq.n	8000104 <SystemInit+0x50>

	RCC_CFGR |=  0x01 << 24;  //select sys_clk as mco output.
 800010e:	4b0a      	ldr	r3, [pc, #40]	; (8000138 <SystemInit+0x84>)
 8000110:	681a      	ldr	r2, [r3, #0]
 8000112:	f042 7280 	orr.w	r2, r2, #16777216	; 0x1000000
 8000116:	601a      	str	r2, [r3, #0]

	RCC_CFGR |=  0x3 << 0;  //select pll as sys_clk source
 8000118:	681a      	ldr	r2, [r3, #0]
 800011a:	f042 0203 	orr.w	r2, r2, #3
 800011e:	601a      	str	r2, [r3, #0]
	while(   (RCC_CFGR & (0x3 <<2))  !=  (0x3 << 2) );
 8000120:	4b05      	ldr	r3, [pc, #20]	; (8000138 <SystemInit+0x84>)
 8000122:	681b      	ldr	r3, [r3, #0]
 8000124:	f003 030c 	and.w	r3, r3, #12
 8000128:	2b0c      	cmp	r3, #12
 800012a:	d1f9      	bne.n	8000120 <SystemInit+0x6c>
#endif
}
 800012c:	4770      	bx	lr
 800012e:	bf00      	nop
 8000130:	40021000 	.word	0x40021000
 8000134:	4002100c 	.word	0x4002100c
 8000138:	40021008 	.word	0x40021008

0800013c <my_fputc>:


int my_fputc(int ch)
{
    while((USART1_ISR & (0x1 <<6)) == 0); 
 800013c:	4b03      	ldr	r3, [pc, #12]	; (800014c <my_fputc+0x10>)
 800013e:	681b      	ldr	r3, [r3, #0]
 8000140:	f013 0f40 	tst.w	r3, #64	; 0x40
 8000144:	d0fa      	beq.n	800013c <my_fputc>

    USART1_TDR = ch;
 8000146:	4b02      	ldr	r3, [pc, #8]	; (8000150 <my_fputc+0x14>)
 8000148:	6018      	str	r0, [r3, #0]
    return ch;
}
 800014a:	4770      	bx	lr
 800014c:	4001381c 	.word	0x4001381c
 8000150:	40013828 	.word	0x40013828

08000154 <my_fputs>:


int my_fputs(char *s){
 8000154:	b510      	push	{r4, lr}
 8000156:	4604      	mov	r4, r0
	for(;*s;s++)  
 8000158:	e002      	b.n	8000160 <my_fputs+0xc>
		my_fputc( *s);
 800015a:	f7ff ffef 	bl	800013c <my_fputc>
    return ch;
}


int my_fputs(char *s){
	for(;*s;s++)  
 800015e:	3401      	adds	r4, #1
 8000160:	7820      	ldrb	r0, [r4, #0]
 8000162:	2800      	cmp	r0, #0
 8000164:	d1f9      	bne.n	800015a <my_fputs+0x6>
		my_fputc( *s);
	return 0;
}
 8000166:	bd10      	pop	{r4, pc}

08000168 <loop>:

void loop(char ch){

	while(   (USART1_ISR & (0x1 <<6)) == 0  ){
 8000168:	e004      	b.n	8000174 <loop+0xc>
		 USART1_TDR  =   USART1_RDR & 0xff;
 800016a:	4b05      	ldr	r3, [pc, #20]	; (8000180 <loop+0x18>)
 800016c:	681b      	ldr	r3, [r3, #0]
 800016e:	b2db      	uxtb	r3, r3
 8000170:	4a04      	ldr	r2, [pc, #16]	; (8000184 <loop+0x1c>)
 8000172:	6013      	str	r3, [r2, #0]
	return 0;
}

void loop(char ch){

	while(   (USART1_ISR & (0x1 <<6)) == 0  ){
 8000174:	4b04      	ldr	r3, [pc, #16]	; (8000188 <loop+0x20>)
 8000176:	681b      	ldr	r3, [r3, #0]
 8000178:	f013 0f40 	tst.w	r3, #64	; 0x40
 800017c:	d0f5      	beq.n	800016a <loop+0x2>
		 USART1_TDR  =   USART1_RDR & 0xff;
	}
    
}
 800017e:	4770      	bx	lr
 8000180:	40013824 	.word	0x40013824
 8000184:	40013828 	.word	0x40013828
 8000188:	4001381c 	.word	0x4001381c

0800018c <uart_init>:

void uart_init(){
	
	//gpio init
	RCC_AHB2ENR   |= 1<<0;     //enable gpioa clock;
 800018c:	4a28      	ldr	r2, [pc, #160]	; (8000230 <uart_init+0xa4>)
 800018e:	6813      	ldr	r3, [r2, #0]
 8000190:	f043 0301 	orr.w	r3, r3, #1
 8000194:	6013      	str	r3, [r2, #0]
	
	GPIOA_MODER   &=  ~(0x3 <<18);
 8000196:	f04f 4390 	mov.w	r3, #1207959552	; 0x48000000
 800019a:	681a      	ldr	r2, [r3, #0]
 800019c:	f422 2240 	bic.w	r2, r2, #786432	; 0xc0000
 80001a0:	601a      	str	r2, [r3, #0]
	GPIOA_MODER   &=  ~(0x3 <<20);
 80001a2:	681a      	ldr	r2, [r3, #0]
 80001a4:	f422 1240 	bic.w	r2, r2, #3145728	; 0x300000
 80001a8:	601a      	str	r2, [r3, #0]
	GPIOA_MODER   |=  (0x2 << 18)| ( 0x2 << 20) ; //config gpio 9,10 as alternate function
 80001aa:	681a      	ldr	r2, [r3, #0]
 80001ac:	f442 1220 	orr.w	r2, r2, #2621440	; 0x280000
 80001b0:	601a      	str	r2, [r3, #0]
	
	
	GPIOA_OTYPER  &= ~( 1<<9);   //push pull
 80001b2:	3304      	adds	r3, #4
 80001b4:	681a      	ldr	r2, [r3, #0]
 80001b6:	f422 7200 	bic.w	r2, r2, #512	; 0x200
 80001ba:	601a      	str	r2, [r3, #0]
	GPIOA_OTYPER  &= ~( 1<<10);  //push pull
 80001bc:	681a      	ldr	r2, [r3, #0]
 80001be:	f422 6280 	bic.w	r2, r2, #1024	; 0x400
 80001c2:	601a      	str	r2, [r3, #0]
	GPIOA_OSPEEDR |=  (0x3 << 18) | (0x03 <<20)  ;   //very high speed;
 80001c4:	4a1b      	ldr	r2, [pc, #108]	; (8000234 <uart_init+0xa8>)
 80001c6:	6813      	ldr	r3, [r2, #0]
 80001c8:	f443 1370 	orr.w	r3, r3, #3932160	; 0x3c0000
 80001cc:	6013      	str	r3, [r2, #0]
	GPIOA_AFRH    |=  (0x7<<4) | (0x7<<8);   //gpio9,10
 80001ce:	321c      	adds	r2, #28
 80001d0:	6813      	ldr	r3, [r2, #0]
 80001d2:	f443 63ee 	orr.w	r3, r3, #1904	; 0x770
 80001d6:	6013      	str	r3, [r2, #0]
	
	
	//uart init
	//Program the Baud Rate, Word Length, Stop Bit, Parity, Prescaler value , Hardware
    //    flow control and Mode (Receiver/Transmitter) in the huart handle Init structure.
        RCC_APB2ENR   |= 1<<14;   //enable usart1 clock;
 80001d8:	4a17      	ldr	r2, [pc, #92]	; (8000238 <uart_init+0xac>)
 80001da:	6813      	ldr	r3, [r2, #0]
 80001dc:	f443 4380 	orr.w	r3, r3, #16384	; 0x4000
 80001e0:	6013      	str	r3, [r2, #0]
	
	USART1_CR1 = 0;	
 80001e2:	4b16      	ldr	r3, [pc, #88]	; (800023c <uart_init+0xb0>)
 80001e4:	2200      	movs	r2, #0
 80001e6:	601a      	str	r2, [r3, #0]
	USART1_CR1  &= ~(0x1 << 12);   //M0  
 80001e8:	681a      	ldr	r2, [r3, #0]
 80001ea:	f422 5280 	bic.w	r2, r2, #4096	; 0x1000
 80001ee:	601a      	str	r2, [r3, #0]
	USART1_CR1  &= ~(0x1 << 28);   //M1    M1:M0==0  8 bit length;
 80001f0:	681a      	ldr	r2, [r3, #0]
 80001f2:	f022 5280 	bic.w	r2, r2, #268435456	; 0x10000000
 80001f6:	601a      	str	r2, [r3, #0]
	
	//USART1_CR1  |=  (1 << 15);       //oversameple  8 enabled;
	USART1_CR1  &=  ~(0x1 <<10);       //none  parity;
 80001f8:	681a      	ldr	r2, [r3, #0]
 80001fa:	f422 6280 	bic.w	r2, r2, #1024	; 0x400
 80001fe:	601a      	str	r2, [r3, #0]
	USART1_CR2  &= ~(0x03 << 12);      //1 stop bit;
 8000200:	490f      	ldr	r1, [pc, #60]	; (8000240 <uart_init+0xb4>)
 8000202:	680a      	ldr	r2, [r1, #0]
 8000204:	f422 5240 	bic.w	r2, r2, #12288	; 0x3000
 8000208:	600a      	str	r2, [r1, #0]
	USART1_CR3  &=  ~(0x3 << 8);       //disable hw flow;
 800020a:	3104      	adds	r1, #4
 800020c:	680a      	ldr	r2, [r1, #0]
 800020e:	f422 7240 	bic.w	r2, r2, #768	; 0x300
 8000212:	600a      	str	r2, [r1, #0]
	
	//USART1_BRR = 0x2b3; //115200 baud rate;  // (2*40000000/115200) ===694.44(0x2b6h)     0x2b  and  (6>>1)  ==   2b3  for oversameple 8
	USART1_BRR = 0x15b; //115200 baud rate;  // (40 000 000/115200) ===347(0x15bh)     for oversameple 16
 8000214:	f240 115b 	movw	r1, #347	; 0x15b
 8000218:	4a0a      	ldr	r2, [pc, #40]	; (8000244 <uart_init+0xb8>)
 800021a:	6011      	str	r1, [r2, #0]
	
	USART1_CR1  |=  (0x1 << 2 ) | (0x1 <<3) ;  //enable tx&rx;
 800021c:	681a      	ldr	r2, [r3, #0]
 800021e:	f042 020c 	orr.w	r2, r2, #12
 8000222:	601a      	str	r2, [r3, #0]
	USART1_CR1 |= 0x1 << 0;   //enable usart;
 8000224:	681a      	ldr	r2, [r3, #0]
 8000226:	f042 0201 	orr.w	r2, r2, #1
 800022a:	601a      	str	r2, [r3, #0]
 800022c:	4770      	bx	lr
 800022e:	bf00      	nop
 8000230:	4002104c 	.word	0x4002104c
 8000234:	48000008 	.word	0x48000008
 8000238:	40021060 	.word	0x40021060
 800023c:	40013800 	.word	0x40013800
 8000240:	40013804 	.word	0x40013804
 8000244:	4001380c 	.word	0x4001380c

08000248 <light_red_led>:
}

void light_red_led(){
	
	//enable gpioe  clock
	RCC_AHB2ENR  |= 1<<4;
 8000248:	4a0d      	ldr	r2, [pc, #52]	; (8000280 <light_red_led+0x38>)
 800024a:	6813      	ldr	r3, [r2, #0]
 800024c:	f043 0310 	orr.w	r3, r3, #16
 8000250:	6013      	str	r3, [r2, #0]

	//config  gpioe-7 as output 
	GPIOE_MODER = 0;
 8000252:	4b0c      	ldr	r3, [pc, #48]	; (8000284 <light_red_led+0x3c>)
 8000254:	2200      	movs	r2, #0
 8000256:	601a      	str	r2, [r3, #0]
	GPIOE_MODER |=  (0x01 << 14);   //output
 8000258:	681a      	ldr	r2, [r3, #0]
 800025a:	f442 4280 	orr.w	r2, r2, #16384	; 0x4000
 800025e:	601a      	str	r2, [r3, #0]
	GPIOE_OTYPER  &=  ~(1<<7);   //push-pull
 8000260:	4a09      	ldr	r2, [pc, #36]	; (8000288 <light_red_led+0x40>)
 8000262:	6813      	ldr	r3, [r2, #0]
 8000264:	f023 0380 	bic.w	r3, r3, #128	; 0x80
 8000268:	6013      	str	r3, [r2, #0]
	GPIOE_PUPDR &= ~(0x03 <<7);  //no pull up-down.
 800026a:	3208      	adds	r2, #8
 800026c:	6813      	ldr	r3, [r2, #0]
 800026e:	f423 73c0 	bic.w	r3, r3, #384	; 0x180
 8000272:	6013      	str	r3, [r2, #0]
	GPIOE_ODR   &= ~(1<<7); //light  Red led
 8000274:	3208      	adds	r2, #8
 8000276:	6813      	ldr	r3, [r2, #0]
 8000278:	f023 0380 	bic.w	r3, r3, #128	; 0x80
 800027c:	6013      	str	r3, [r2, #0]
 800027e:	4770      	bx	lr
 8000280:	4002104c 	.word	0x4002104c
 8000284:	48001000 	.word	0x48001000
 8000288:	48001004 	.word	0x48001004

0800028c <main>:
}
	
int main(){
 800028c:	b508      	push	{r3, lr}
	
    SystemInit();
 800028e:	f7ff ff11 	bl	80000b4 <SystemInit>
    light_red_led();
 8000292:	f7ff ffd9 	bl	8000248 <light_red_led>
	
	uart_init();
 8000296:	f7ff ff79 	bl	800018c <uart_init>
	my_fputs("hello world\r\n");
 800029a:	4803      	ldr	r0, [pc, #12]	; (80002a8 <main+0x1c>)
 800029c:	f7ff ff5a 	bl	8000154 <my_fputs>
    while(1){  
		my_fputs("fuxxxxx luart1\r\n");
 80002a0:	4802      	ldr	r0, [pc, #8]	; (80002ac <main+0x20>)
 80002a2:	f7ff ff57 	bl	8000154 <my_fputs>
 80002a6:	e7fb      	b.n	80002a0 <main+0x14>
 80002a8:	080002b0 	.word	0x080002b0
 80002ac:	080002c0 	.word	0x080002c0
