
initcalls.elf:     file format elf32-littlearm


Disassembly of section .text:

08000180 <__do_global_dtors_aux>:
 8000180:	b510      	push	{r4, lr}
 8000182:	4c05      	ldr	r4, [pc, #20]	; (8000198 <__do_global_dtors_aux+0x18>)
 8000184:	7823      	ldrb	r3, [r4, #0]
 8000186:	b933      	cbnz	r3, 8000196 <__do_global_dtors_aux+0x16>
 8000188:	4b04      	ldr	r3, [pc, #16]	; (800019c <__do_global_dtors_aux+0x1c>)
 800018a:	b113      	cbz	r3, 8000192 <__do_global_dtors_aux+0x12>
 800018c:	4804      	ldr	r0, [pc, #16]	; (80001a0 <__do_global_dtors_aux+0x20>)
 800018e:	f3af 8000 	nop.w
 8000192:	2301      	movs	r3, #1
 8000194:	7023      	strb	r3, [r4, #0]
 8000196:	bd10      	pop	{r4, pc}
 8000198:	20000000 	.word	0x20000000
 800019c:	00000000 	.word	0x00000000
 80001a0:	080004a8 	.word	0x080004a8

080001a4 <frame_dummy>:
 80001a4:	b508      	push	{r3, lr}
 80001a6:	4b03      	ldr	r3, [pc, #12]	; (80001b4 <frame_dummy+0x10>)
 80001a8:	b11b      	cbz	r3, 80001b2 <frame_dummy+0xe>
 80001aa:	4903      	ldr	r1, [pc, #12]	; (80001b8 <frame_dummy+0x14>)
 80001ac:	4803      	ldr	r0, [pc, #12]	; (80001bc <frame_dummy+0x18>)
 80001ae:	f3af 8000 	nop.w
 80001b2:	bd08      	pop	{r3, pc}
 80001b4:	00000000 	.word	0x00000000
 80001b8:	20000004 	.word	0x20000004
 80001bc:	080004a8 	.word	0x080004a8

080001c0 <ADC1_2_IRQHandler>:
    main();
}

 __attribute__((weak))
void Default_Handler(void){
	while(1){};
 80001c0:	e7fe      	b.n	80001c0 <ADC1_2_IRQHandler>
	...

080001c4 <Reset_handler>:
{
 80001c4:	b508      	push	{r3, lr}
     __asm("    ldr    sp, =_estack");
 80001c6:	f8df d048 	ldr.w	sp, [pc, #72]	; 8000210 <Reset_handler+0x4c>
   char *ram_dest = &_sdata;
 80001ca:	4b0c      	ldr	r3, [pc, #48]	; (80001fc <Reset_handler+0x38>)
   char *flash_src =  &_sidata;
 80001cc:	4a0c      	ldr	r2, [pc, #48]	; (8000200 <Reset_handler+0x3c>)
   while(ram_dest < &_edata)
 80001ce:	490d      	ldr	r1, [pc, #52]	; (8000204 <Reset_handler+0x40>)
 80001d0:	428b      	cmp	r3, r1
 80001d2:	d204      	bcs.n	80001de <Reset_handler+0x1a>
	*ram_dest ++ = *flash_src++;
 80001d4:	f812 1b01 	ldrb.w	r1, [r2], #1
 80001d8:	f803 1b01 	strb.w	r1, [r3], #1
 80001dc:	e7f7      	b.n	80001ce <Reset_handler+0xa>
    for(ram_dest = &_sbss; ram_dest < &_ebss; ram_dest++ )
 80001de:	4b0a      	ldr	r3, [pc, #40]	; (8000208 <Reset_handler+0x44>)
 80001e0:	e002      	b.n	80001e8 <Reset_handler+0x24>
	*ram_dest  =  0x0;
 80001e2:	2200      	movs	r2, #0
 80001e4:	f803 2b01 	strb.w	r2, [r3], #1
    for(ram_dest = &_sbss; ram_dest < &_ebss; ram_dest++ )
 80001e8:	4a08      	ldr	r2, [pc, #32]	; (800020c <Reset_handler+0x48>)
 80001ea:	4293      	cmp	r3, r2
 80001ec:	d3f9      	bcc.n	80001e2 <Reset_handler+0x1e>
    __libc_init_array();
 80001ee:	f000 f937 	bl	8000460 <__libc_init_array>
    do_initcalls();
 80001f2:	f000 f927 	bl	8000444 <do_initcalls>
    main();
 80001f6:	f000 f8f3 	bl	80003e0 <main>
}
 80001fa:	bd08      	pop	{r3, pc}
 80001fc:	20000000 	.word	0x20000000
 8000200:	08000538 	.word	0x08000538
 8000204:	20000000 	.word	0x20000000
 8000208:	20000000 	.word	0x20000000
 800020c:	2000001c 	.word	0x2000001c
 8000210:	20018000 	.word	0x20018000

08000214 <SystemInit>:
	
	RCC_CR |=  1<<0; //enable mis clk;
	while( (RCC_CR & 0x02) ==0);   //wait until  MSI clk enabled;
#elif (SYS_CLK_SOURCE == 1) 
	
	RCC_CR |= 1 << 16;  //enable HSE on 
 8000214:	4a1e      	ldr	r2, [pc, #120]	; (8000290 <SystemInit+0x7c>)
 8000216:	6813      	ldr	r3, [r2, #0]
 8000218:	f443 3380 	orr.w	r3, r3, #65536	; 0x10000
 800021c:	6013      	str	r3, [r2, #0]
	//RCC_CR |= 1 << 18;  //bypass vco 
	while(   (RCC_CR &  (1<<17)) == 0 );
 800021e:	4b1c      	ldr	r3, [pc, #112]	; (8000290 <SystemInit+0x7c>)
 8000220:	681b      	ldr	r3, [r3, #0]
 8000222:	f413 3f00 	tst.w	r3, #131072	; 0x20000
 8000226:	d0fa      	beq.n	800021e <SystemInit+0xa>
	
	RCC_PLLCFGR |=  0x3 << 0;   //select HSE as PLL source
 8000228:	4b1a      	ldr	r3, [pc, #104]	; (8000294 <SystemInit+0x80>)
 800022a:	681a      	ldr	r2, [r3, #0]
 800022c:	f042 0203 	orr.w	r2, r2, #3
 8000230:	601a      	str	r2, [r3, #0]
	RCC_PLLCFGR &=  ~(0x7<<4);   //config  pll as source /1    8M/1 ===8M
 8000232:	681a      	ldr	r2, [r3, #0]
 8000234:	f022 0270 	bic.w	r2, r2, #112	; 0x70
 8000238:	601a      	str	r2, [r3, #0]
	RCC_PLLCFGR &=  ~(0x3f<<8);
 800023a:	681a      	ldr	r2, [r3, #0]
 800023c:	f422 527c 	bic.w	r2, r2, #16128	; 0x3f00
 8000240:	601a      	str	r2, [r3, #0]
	RCC_PLLCFGR |=  10 << 8;    //config  clk as source X10   8Mx10 == 80Mhz
 8000242:	681a      	ldr	r2, [r3, #0]
 8000244:	f442 6220 	orr.w	r2, r2, #2560	; 0xa00
 8000248:	601a      	str	r2, [r3, #0]
	RCC_PLLCFGR |=  0x1 << 24;   //enable R clock 
 800024a:	681a      	ldr	r2, [r3, #0]
 800024c:	f042 7280 	orr.w	r2, r2, #16777216	; 0x1000000
 8000250:	601a      	str	r2, [r3, #0]
	RCC_PLLCFGR &=  ~(0x3 << 25);  //config clk as soruce /2   80Mhz/2==40Hz;
 8000252:	681a      	ldr	r2, [r3, #0]
 8000254:	f022 62c0 	bic.w	r2, r2, #100663296	; 0x6000000
 8000258:	601a      	str	r2, [r3, #0]
	
	RCC_CR  |=  0x1<< 24;   //enable pll clk source
 800025a:	4a0d      	ldr	r2, [pc, #52]	; (8000290 <SystemInit+0x7c>)
 800025c:	6813      	ldr	r3, [r2, #0]
 800025e:	f043 7380 	orr.w	r3, r3, #16777216	; 0x1000000
 8000262:	6013      	str	r3, [r2, #0]
	while(  ( RCC_CR & (0x1 <<25) ) == 0 ); //wait unitl pllclk ready
 8000264:	4b0a      	ldr	r3, [pc, #40]	; (8000290 <SystemInit+0x7c>)
 8000266:	681b      	ldr	r3, [r3, #0]
 8000268:	f013 7f00 	tst.w	r3, #33554432	; 0x2000000
 800026c:	d0fa      	beq.n	8000264 <SystemInit+0x50>

	RCC_CFGR |=  0x01 << 24;  //select sys_clk as mco output.
 800026e:	4b0a      	ldr	r3, [pc, #40]	; (8000298 <SystemInit+0x84>)
 8000270:	681a      	ldr	r2, [r3, #0]
 8000272:	f042 7280 	orr.w	r2, r2, #16777216	; 0x1000000
 8000276:	601a      	str	r2, [r3, #0]

	RCC_CFGR |=  0x3 << 0;  //select pll as sys_clk source
 8000278:	681a      	ldr	r2, [r3, #0]
 800027a:	f042 0203 	orr.w	r2, r2, #3
 800027e:	601a      	str	r2, [r3, #0]
	while(   ( RCC_CFGR & (0x3 <<2))  !=  (0x3 << 2) );
 8000280:	4b05      	ldr	r3, [pc, #20]	; (8000298 <SystemInit+0x84>)
 8000282:	681b      	ldr	r3, [r3, #0]
 8000284:	f003 030c 	and.w	r3, r3, #12
 8000288:	2b0c      	cmp	r3, #12
 800028a:	d1f9      	bne.n	8000280 <SystemInit+0x6c>
#endif
}
 800028c:	4770      	bx	lr
 800028e:	bf00      	nop
 8000290:	40021000 	.word	0x40021000
 8000294:	4002100c 	.word	0x4002100c
 8000298:	40021008 	.word	0x40021008

0800029c <uart_init>:
}

void uart_init(){
	
	//gpio init
	RCC_AHB2ENR   |= 1<<0;     //enable gpioa clock;
 800029c:	4a28      	ldr	r2, [pc, #160]	; (8000340 <uart_init+0xa4>)
 800029e:	6813      	ldr	r3, [r2, #0]
 80002a0:	f043 0301 	orr.w	r3, r3, #1
 80002a4:	6013      	str	r3, [r2, #0]
	
	GPIOA_MODER   &=  ~(0x3 <<18);
 80002a6:	f04f 4390 	mov.w	r3, #1207959552	; 0x48000000
 80002aa:	681a      	ldr	r2, [r3, #0]
 80002ac:	f422 2240 	bic.w	r2, r2, #786432	; 0xc0000
 80002b0:	601a      	str	r2, [r3, #0]
	GPIOA_MODER   &=  ~(0x3 <<20);
 80002b2:	681a      	ldr	r2, [r3, #0]
 80002b4:	f422 1240 	bic.w	r2, r2, #3145728	; 0x300000
 80002b8:	601a      	str	r2, [r3, #0]
	GPIOA_MODER   |=  (0x2 << 18)| ( 0x2 << 20) ; //config gpio 9,10 as alternate function
 80002ba:	681a      	ldr	r2, [r3, #0]
 80002bc:	f442 1220 	orr.w	r2, r2, #2621440	; 0x280000
 80002c0:	601a      	str	r2, [r3, #0]
	
	
	GPIOA_OTYPER  &= ~( 1<<9);   //push pull
 80002c2:	3304      	adds	r3, #4
 80002c4:	681a      	ldr	r2, [r3, #0]
 80002c6:	f422 7200 	bic.w	r2, r2, #512	; 0x200
 80002ca:	601a      	str	r2, [r3, #0]
	GPIOA_OTYPER  &= ~( 1<<10);  //push pull
 80002cc:	681a      	ldr	r2, [r3, #0]
 80002ce:	f422 6280 	bic.w	r2, r2, #1024	; 0x400
 80002d2:	601a      	str	r2, [r3, #0]
	GPIOA_OSPEEDR |=  (0x3 << 18) | (0x03 <<20)  ;   //very high speed;
 80002d4:	4a1b      	ldr	r2, [pc, #108]	; (8000344 <uart_init+0xa8>)
 80002d6:	6813      	ldr	r3, [r2, #0]
 80002d8:	f443 1370 	orr.w	r3, r3, #3932160	; 0x3c0000
 80002dc:	6013      	str	r3, [r2, #0]
	GPIOA_AFRH    |=  (0x7<<4) | (0x7<<8);   //gpio9,10
 80002de:	321c      	adds	r2, #28
 80002e0:	6813      	ldr	r3, [r2, #0]
 80002e2:	f443 63ee 	orr.w	r3, r3, #1904	; 0x770
 80002e6:	6013      	str	r3, [r2, #0]
	
	
	//uart init
	//Program the Baud Rate, Word Length, Stop Bit, Parity, Prescaler value , Hardware
    //    flow control and Mode (Receiver/Transmitter) in the huart handle Init structure.
        RCC_APB2ENR   |= 1<<14;   //enable usart1 clock;
 80002e8:	4a17      	ldr	r2, [pc, #92]	; (8000348 <uart_init+0xac>)
 80002ea:	6813      	ldr	r3, [r2, #0]
 80002ec:	f443 4380 	orr.w	r3, r3, #16384	; 0x4000
 80002f0:	6013      	str	r3, [r2, #0]
	
	USART1_CR1 = 0;	
 80002f2:	4b16      	ldr	r3, [pc, #88]	; (800034c <uart_init+0xb0>)
 80002f4:	2200      	movs	r2, #0
 80002f6:	601a      	str	r2, [r3, #0]
	USART1_CR1  &= ~(0x1 << 12);   //M0  
 80002f8:	681a      	ldr	r2, [r3, #0]
 80002fa:	f422 5280 	bic.w	r2, r2, #4096	; 0x1000
 80002fe:	601a      	str	r2, [r3, #0]
	USART1_CR1  &= ~(0x1 << 28);   //M1    M1:M0==0  8 bit length;
 8000300:	681a      	ldr	r2, [r3, #0]
 8000302:	f022 5280 	bic.w	r2, r2, #268435456	; 0x10000000
 8000306:	601a      	str	r2, [r3, #0]
	
	//USART1_CR1  |=  (1 << 15);       //oversameple  8 enabled;
	USART1_CR1  &=  ~(0x1 <<10);       //none  parity;
 8000308:	681a      	ldr	r2, [r3, #0]
 800030a:	f422 6280 	bic.w	r2, r2, #1024	; 0x400
 800030e:	601a      	str	r2, [r3, #0]
	USART1_CR2  &= ~(0x03 << 12);      //1 stop bit;
 8000310:	490f      	ldr	r1, [pc, #60]	; (8000350 <uart_init+0xb4>)
 8000312:	680a      	ldr	r2, [r1, #0]
 8000314:	f422 5240 	bic.w	r2, r2, #12288	; 0x3000
 8000318:	600a      	str	r2, [r1, #0]
	USART1_CR3  &=  ~(0x3 << 8);       //disable hw flow;
 800031a:	3104      	adds	r1, #4
 800031c:	680a      	ldr	r2, [r1, #0]
 800031e:	f422 7240 	bic.w	r2, r2, #768	; 0x300
 8000322:	600a      	str	r2, [r1, #0]
	
	//USART1_BRR = 0x2b3; //115200 baud rate;  // (2*40000000/115200) ===694.44(0x2b6h)     0x2b  and  (6>>1)  ==   2b3  for oversameple 8
	USART1_BRR = 0x15b; //115200 baud rate;  // (40 000 000/115200) ===347(0x15bh)     for oversameple 16
 8000324:	4a0b      	ldr	r2, [pc, #44]	; (8000354 <uart_init+0xb8>)
 8000326:	f240 115b 	movw	r1, #347	; 0x15b
 800032a:	6011      	str	r1, [r2, #0]
	
	USART1_CR1  |=  (0x1 << 2 ) | (0x1 <<3) ;  //enable tx&rx;
 800032c:	681a      	ldr	r2, [r3, #0]
 800032e:	f042 020c 	orr.w	r2, r2, #12
 8000332:	601a      	str	r2, [r3, #0]
	USART1_CR1 |= 0x1 << 0;   //enable usart;
 8000334:	681a      	ldr	r2, [r3, #0]
 8000336:	f042 0201 	orr.w	r2, r2, #1
 800033a:	601a      	str	r2, [r3, #0]
	
}
 800033c:	4770      	bx	lr
 800033e:	bf00      	nop
 8000340:	4002104c 	.word	0x4002104c
 8000344:	48000008 	.word	0x48000008
 8000348:	40021060 	.word	0x40021060
 800034c:	40013800 	.word	0x40013800
 8000350:	40013804 	.word	0x40013804
 8000354:	4001380c 	.word	0x4001380c

08000358 <light_red_led>:


void light_red_led(){
	
	//enable gpioe  clock
	RCC_AHB2ENR  |= 1<<4;
 8000358:	4a0d      	ldr	r2, [pc, #52]	; (8000390 <light_red_led+0x38>)
 800035a:	6813      	ldr	r3, [r2, #0]
 800035c:	f043 0310 	orr.w	r3, r3, #16
 8000360:	6013      	str	r3, [r2, #0]

	//config  gpioe-7 as output 
	GPIOE_MODER = 0;
 8000362:	4b0c      	ldr	r3, [pc, #48]	; (8000394 <light_red_led+0x3c>)
 8000364:	2200      	movs	r2, #0
 8000366:	601a      	str	r2, [r3, #0]
	GPIOE_MODER |=  (0x01 << 14);   //output
 8000368:	681a      	ldr	r2, [r3, #0]
 800036a:	f442 4280 	orr.w	r2, r2, #16384	; 0x4000
 800036e:	601a      	str	r2, [r3, #0]
	GPIOE_OTYPER  &=  ~(1<<7);   //push-pull
 8000370:	4a09      	ldr	r2, [pc, #36]	; (8000398 <light_red_led+0x40>)
 8000372:	6813      	ldr	r3, [r2, #0]
 8000374:	f023 0380 	bic.w	r3, r3, #128	; 0x80
 8000378:	6013      	str	r3, [r2, #0]
	GPIOE_PUPDR &= ~(0x03 <<7);  //no pull up-down.
 800037a:	3208      	adds	r2, #8
 800037c:	6813      	ldr	r3, [r2, #0]
 800037e:	f423 73c0 	bic.w	r3, r3, #384	; 0x180
 8000382:	6013      	str	r3, [r2, #0]
	GPIOE_ODR   &= ~(1<<7); //light  Red led
 8000384:	3208      	adds	r2, #8
 8000386:	6813      	ldr	r3, [r2, #0]
 8000388:	f023 0380 	bic.w	r3, r3, #128	; 0x80
 800038c:	6013      	str	r3, [r2, #0]
}
 800038e:	4770      	bx	lr
 8000390:	4002104c 	.word	0x4002104c
 8000394:	48001000 	.word	0x48001000
 8000398:	48001004 	.word	0x48001004

0800039c <my_fputc>:
    while((USART1_ISR & (0x1 <<6)) == 0); 
 800039c:	4b03      	ldr	r3, [pc, #12]	; (80003ac <my_fputc+0x10>)
 800039e:	681b      	ldr	r3, [r3, #0]
 80003a0:	f013 0f40 	tst.w	r3, #64	; 0x40
 80003a4:	d0fa      	beq.n	800039c <my_fputc>
    USART1_TDR = ch;
 80003a6:	4b02      	ldr	r3, [pc, #8]	; (80003b0 <my_fputc+0x14>)
 80003a8:	6018      	str	r0, [r3, #0]
}
 80003aa:	4770      	bx	lr
 80003ac:	4001381c 	.word	0x4001381c
 80003b0:	40013828 	.word	0x40013828

080003b4 <my_fputs>:
int my_fputs(char *s){
 80003b4:	b510      	push	{r4, lr}
 80003b6:	4604      	mov	r4, r0
	for(;*s;s++)  
 80003b8:	7820      	ldrb	r0, [r4, #0]
 80003ba:	b118      	cbz	r0, 80003c4 <my_fputs+0x10>
		my_fputc( *s);
 80003bc:	f7ff ffee 	bl	800039c <my_fputc>
	for(;*s;s++)  
 80003c0:	3401      	adds	r4, #1
 80003c2:	e7f9      	b.n	80003b8 <my_fputs+0x4>
}
 80003c4:	bd10      	pop	{r4, pc}
	...

080003c8 <show_info>:
app_init( light_red_led);

void show_info(){
 80003c8:	b508      	push	{r3, lr}
	my_fputs("Welcome stm32 \r\n");
 80003ca:	4803      	ldr	r0, [pc, #12]	; (80003d8 <show_info+0x10>)
 80003cc:	f7ff fff2 	bl	80003b4 <my_fputs>
	my_fputs("Run On 40 mHz\r\n");
 80003d0:	4802      	ldr	r0, [pc, #8]	; (80003dc <show_info+0x14>)
 80003d2:	f7ff ffef 	bl	80003b4 <my_fputs>
}
 80003d6:	bd08      	pop	{r3, pc}
 80003d8:	080004c0 	.word	0x080004c0
 80003dc:	080004d4 	.word	0x080004d4

080003e0 <main>:
    //my_fputs("hello world\r\n");
    //systick_init();
    //tim6_init();
	
	
    while(1){  
 80003e0:	e7fe      	b.n	80003e0 <main>
	...

080003e4 <SysTick_Handler>:
void systick_delay_ms(uint32_t count){
	while(count--)
		systick_delay_ns(1000);
}

void SysTick_Handler(void){
 80003e4:	b508      	push	{r3, lr}
   my_fputs("sys_tick handlered\r\n");
 80003e6:	4802      	ldr	r0, [pc, #8]	; (80003f0 <SysTick_Handler+0xc>)
 80003e8:	f7ff ffe4 	bl	80003b4 <my_fputs>
}
 80003ec:	bd08      	pop	{r3, pc}
 80003ee:	bf00      	nop
 80003f0:	080004e4 	.word	0x080004e4

080003f4 <tim6_init>:



void tim6_init(){
	
	RCC_APB1ENR1  |=  1 << 4; //tim6 clk enable;
 80003f4:	4a0b      	ldr	r2, [pc, #44]	; (8000424 <tim6_init+0x30>)
 80003f6:	6813      	ldr	r3, [r2, #0]
 80003f8:	f043 0310 	orr.w	r3, r3, #16
 80003fc:	6013      	str	r3, [r2, #0]
	
	TIM6_PSC =  40-1;     //0; //no scale  40 mhz apb bus frequency.
 80003fe:	4b0a      	ldr	r3, [pc, #40]	; (8000428 <tim6_init+0x34>)
 8000400:	2227      	movs	r2, #39	; 0x27
 8000402:	601a      	str	r2, [r3, #0]
	TIM6_ARR = 0xffff;  //can count to 0xffff ns
 8000404:	3304      	adds	r3, #4
 8000406:	f64f 72ff 	movw	r2, #65535	; 0xffff
 800040a:	601a      	str	r2, [r3, #0]
		
	TIM6_CR1  |= (1<<0);  //enable count
 800040c:	4a07      	ldr	r2, [pc, #28]	; (800042c <tim6_init+0x38>)
 800040e:	6813      	ldr	r3, [r2, #0]
 8000410:	f043 0301 	orr.w	r3, r3, #1
 8000414:	6013      	str	r3, [r2, #0]
	while(    !(TIM6_SR & (1 <<0)) );   //wait hardware enabled
 8000416:	4b06      	ldr	r3, [pc, #24]	; (8000430 <tim6_init+0x3c>)
 8000418:	681b      	ldr	r3, [r3, #0]
 800041a:	f013 0f01 	tst.w	r3, #1
 800041e:	d0fa      	beq.n	8000416 <tim6_init+0x22>
}
 8000420:	4770      	bx	lr
 8000422:	bf00      	nop
 8000424:	40021058 	.word	0x40021058
 8000428:	40001028 	.word	0x40001028
 800042c:	40001000 	.word	0x40001000
 8000430:	40001010 	.word	0x40001010

08000434 <TIM6_DAC_IRQHandler>:
void tim6_delay_ms(uint32_t count){
       while(count--)
	tim6_delay_ns(1000);
}

void TIM6_DAC_IRQHandler(void ){
 8000434:	b508      	push	{r3, lr}
	my_fputs("tim6  triggered\r\r");
 8000436:	4802      	ldr	r0, [pc, #8]	; (8000440 <TIM6_DAC_IRQHandler+0xc>)
 8000438:	f7ff ffbc 	bl	80003b4 <my_fputs>
	
}
 800043c:	bd08      	pop	{r3, pc}
 800043e:	bf00      	nop
 8000440:	080004fc 	.word	0x080004fc

08000444 <do_initcalls>:
#include <initcall.h>

extern uint32_t  __initcall_start;
extern uint32_t  __initcall_end;

void do_initcalls(){
 8000444:	b510      	push	{r4, lr}

   initcall_t fc;
   uint32_t *fn_entry;
   // do loop call call initcall functions;
   for( fn_entry =   &__initcall_start  ; fn_entry <  &__initcall_end ; fn_entry++){
 8000446:	4c04      	ldr	r4, [pc, #16]	; (8000458 <do_initcalls+0x14>)
 8000448:	4b04      	ldr	r3, [pc, #16]	; (800045c <do_initcalls+0x18>)
 800044a:	429c      	cmp	r4, r3
 800044c:	d203      	bcs.n	8000456 <do_initcalls+0x12>
	fc = (initcall_t *) (*fn_entry);
 800044e:	f854 3b04 	ldr.w	r3, [r4], #4
	fc();
 8000452:	4798      	blx	r3
   for( fn_entry =   &__initcall_start  ; fn_entry <  &__initcall_end ; fn_entry++){
 8000454:	e7f8      	b.n	8000448 <do_initcalls+0x4>
   }
 
}
 8000456:	bd10      	pop	{r4, pc}
 8000458:	08000510 	.word	0x08000510
 800045c:	08000524 	.word	0x08000524

08000460 <__libc_init_array>:
 8000460:	b570      	push	{r4, r5, r6, lr}
 8000462:	4d0d      	ldr	r5, [pc, #52]	; (8000498 <__libc_init_array+0x38>)
 8000464:	4c0d      	ldr	r4, [pc, #52]	; (800049c <__libc_init_array+0x3c>)
 8000466:	1b64      	subs	r4, r4, r5
 8000468:	10a4      	asrs	r4, r4, #2
 800046a:	2600      	movs	r6, #0
 800046c:	42a6      	cmp	r6, r4
 800046e:	d109      	bne.n	8000484 <__libc_init_array+0x24>
 8000470:	4d0b      	ldr	r5, [pc, #44]	; (80004a0 <__libc_init_array+0x40>)
 8000472:	4c0c      	ldr	r4, [pc, #48]	; (80004a4 <__libc_init_array+0x44>)
 8000474:	f000 f818 	bl	80004a8 <_init>
 8000478:	1b64      	subs	r4, r4, r5
 800047a:	10a4      	asrs	r4, r4, #2
 800047c:	2600      	movs	r6, #0
 800047e:	42a6      	cmp	r6, r4
 8000480:	d105      	bne.n	800048e <__libc_init_array+0x2e>
 8000482:	bd70      	pop	{r4, r5, r6, pc}
 8000484:	f855 3b04 	ldr.w	r3, [r5], #4
 8000488:	4798      	blx	r3
 800048a:	3601      	adds	r6, #1
 800048c:	e7ee      	b.n	800046c <__libc_init_array+0xc>
 800048e:	f855 3b04 	ldr.w	r3, [r5], #4
 8000492:	4798      	blx	r3
 8000494:	3601      	adds	r6, #1
 8000496:	e7f2      	b.n	800047e <__libc_init_array+0x1e>
 8000498:	08000528 	.word	0x08000528
 800049c:	08000528 	.word	0x08000528
 80004a0:	08000528 	.word	0x08000528
 80004a4:	0800052c 	.word	0x0800052c

080004a8 <_init>:
 80004a8:	b5f8      	push	{r3, r4, r5, r6, r7, lr}
 80004aa:	bf00      	nop
 80004ac:	bcf8      	pop	{r3, r4, r5, r6, r7}
 80004ae:	bc08      	pop	{r3}
 80004b0:	469e      	mov	lr, r3
 80004b2:	4770      	bx	lr

080004b4 <_fini>:
 80004b4:	b5f8      	push	{r3, r4, r5, r6, r7, lr}
 80004b6:	bf00      	nop
 80004b8:	bcf8      	pop	{r3, r4, r5, r6, r7}
 80004ba:	bc08      	pop	{r3}
 80004bc:	469e      	mov	lr, r3
 80004be:	4770      	bx	lr
