
hello.elf:     file format elf32-littlearm


Disassembly of section .reset_fun:

200001ac <Reset_handler-0x4>:
200001ac:	00000000 	andeq	r0, r0, r0

200001b0 <Reset_handler>:


//void init_runtime(void)
__attribute((section(".reset_fun")))
void Reset_handler(void)
{
200001b0:	b508      	push	{r3, lr}
     __asm("    ldr    sp, =_estack");
200001b2:	f8df d024 	ldr.w	sp, [pc, #36]	; 200001d8 <Reset_handler+0x28>
/*
   while(ram_dest < &_edata)
	*ram_dest ++ = *flash_src++;
*/
    //init bss with 0 
    for(ram_dest = &_sbss; ram_dest < &_ebss; ram_dest++ )
200001b6:	4b06      	ldr	r3, [pc, #24]	; (200001d0 <Reset_handler+0x20>)
200001b8:	4a06      	ldr	r2, [pc, #24]	; (200001d4 <Reset_handler+0x24>)
200001ba:	4293      	cmp	r3, r2
200001bc:	d203      	bcs.n	200001c6 <Reset_handler+0x16>
	*ram_dest  =  0x0;
200001be:	2200      	movs	r2, #0
200001c0:	f803 2b01 	strb.w	r2, [r3], #1
    for(ram_dest = &_sbss; ram_dest < &_ebss; ram_dest++ )
200001c4:	e7f8      	b.n	200001b8 <Reset_handler+0x8>

    SystemInit();	
200001c6:	f000 f80d 	bl	200001e4 <SystemInit>
   // __libc_init_array();
    main();
200001ca:	f000 f8f7 	bl	200003bc <main>
}
200001ce:	bd08      	pop	{r3, pc}
200001d0:	20000420 	.word	0x20000420
200001d4:	20000420 	.word	0x20000420
200001d8:	20018000 	.word	0x20018000
200001dc:	00000000 	.word	0x00000000

Disassembly of section .text:

200001e0 <BusFault_Handler>:

 __attribute__((weak))
void Default_Handler(void){
	while(1){};
200001e0:	e7fe      	b.n	200001e0 <BusFault_Handler>
	...

200001e4 <SystemInit>:
	
	RCC_CR |=  1<<0; //enable mis clk;
	while( (RCC_CR & 0x02) ==0);   //wait until  MSI clk enabled;
#elif (SYS_CLK_SOURCE == 1) 
	
	RCC_CR |= 1 << 16;  //enable HSE on 
200001e4:	4a1e      	ldr	r2, [pc, #120]	; (20000260 <SystemInit+0x7c>)
200001e6:	6813      	ldr	r3, [r2, #0]
200001e8:	f443 3380 	orr.w	r3, r3, #65536	; 0x10000
200001ec:	6013      	str	r3, [r2, #0]
	//RCC_CR |= 1 << 18;  //bypass vco 
	while(   (RCC_CR &  (1<<17)) == 0 );
200001ee:	4b1c      	ldr	r3, [pc, #112]	; (20000260 <SystemInit+0x7c>)
200001f0:	681b      	ldr	r3, [r3, #0]
200001f2:	f413 3f00 	tst.w	r3, #131072	; 0x20000
200001f6:	d0fa      	beq.n	200001ee <SystemInit+0xa>
	
	RCC_PLLCFGR |=  0x3 << 0;   //select HSE as PLL source
200001f8:	4b1a      	ldr	r3, [pc, #104]	; (20000264 <SystemInit+0x80>)
200001fa:	681a      	ldr	r2, [r3, #0]
200001fc:	f042 0203 	orr.w	r2, r2, #3
20000200:	601a      	str	r2, [r3, #0]
	RCC_PLLCFGR &=  ~(0x7<<4);   //config  pll as source /1    8M/1 ===8M
20000202:	681a      	ldr	r2, [r3, #0]
20000204:	f022 0270 	bic.w	r2, r2, #112	; 0x70
20000208:	601a      	str	r2, [r3, #0]
	RCC_PLLCFGR &=  ~(0x3f<<8);
2000020a:	681a      	ldr	r2, [r3, #0]
2000020c:	f422 527c 	bic.w	r2, r2, #16128	; 0x3f00
20000210:	601a      	str	r2, [r3, #0]
	RCC_PLLCFGR |=  10 << 8;    //config  clk as source X10   8Mx10 == 80Mhz
20000212:	681a      	ldr	r2, [r3, #0]
20000214:	f442 6220 	orr.w	r2, r2, #2560	; 0xa00
20000218:	601a      	str	r2, [r3, #0]
	RCC_PLLCFGR |=  0x1 << 24;   //enable R clock 
2000021a:	681a      	ldr	r2, [r3, #0]
2000021c:	f042 7280 	orr.w	r2, r2, #16777216	; 0x1000000
20000220:	601a      	str	r2, [r3, #0]
	RCC_PLLCFGR &=  ~(0x3 << 25);  //config clk as soruce /2   80Mhz/2==40Hz;
20000222:	681a      	ldr	r2, [r3, #0]
20000224:	f022 62c0 	bic.w	r2, r2, #100663296	; 0x6000000
20000228:	601a      	str	r2, [r3, #0]
	
	RCC_CR  |=  0x1<< 24;   //enable pll clk source
2000022a:	4a0d      	ldr	r2, [pc, #52]	; (20000260 <SystemInit+0x7c>)
2000022c:	6813      	ldr	r3, [r2, #0]
2000022e:	f043 7380 	orr.w	r3, r3, #16777216	; 0x1000000
20000232:	6013      	str	r3, [r2, #0]
	while(  ( RCC_CR & (0x1 <<25) ) == 0 ); //wait unitl pllclk ready
20000234:	4b0a      	ldr	r3, [pc, #40]	; (20000260 <SystemInit+0x7c>)
20000236:	681b      	ldr	r3, [r3, #0]
20000238:	f013 7f00 	tst.w	r3, #33554432	; 0x2000000
2000023c:	d0fa      	beq.n	20000234 <SystemInit+0x50>

	RCC_CFGR |=  0x01 << 24;  //select sys_clk as mco output.
2000023e:	4b0a      	ldr	r3, [pc, #40]	; (20000268 <SystemInit+0x84>)
20000240:	681a      	ldr	r2, [r3, #0]
20000242:	f042 7280 	orr.w	r2, r2, #16777216	; 0x1000000
20000246:	601a      	str	r2, [r3, #0]

	RCC_CFGR |=  0x3 << 0;  //select pll as sys_clk source
20000248:	681a      	ldr	r2, [r3, #0]
2000024a:	f042 0203 	orr.w	r2, r2, #3
2000024e:	601a      	str	r2, [r3, #0]
	while(   (RCC_CFGR & (0x3 <<2))  !=  (0x3 << 2) );
20000250:	4b05      	ldr	r3, [pc, #20]	; (20000268 <SystemInit+0x84>)
20000252:	681b      	ldr	r3, [r3, #0]
20000254:	f003 030c 	and.w	r3, r3, #12
20000258:	2b0c      	cmp	r3, #12
2000025a:	d1f9      	bne.n	20000250 <SystemInit+0x6c>
#endif
}
2000025c:	4770      	bx	lr
2000025e:	bf00      	nop
20000260:	40021000 	.word	0x40021000
20000264:	4002100c 	.word	0x4002100c
20000268:	40021008 	.word	0x40021008

2000026c <my_fputc>:


int my_fputc(int ch)
{
    while((USART1_ISR & (0x1 <<6)) == 0); 
2000026c:	4b03      	ldr	r3, [pc, #12]	; (2000027c <my_fputc+0x10>)
2000026e:	681b      	ldr	r3, [r3, #0]
20000270:	f013 0f40 	tst.w	r3, #64	; 0x40
20000274:	d0fa      	beq.n	2000026c <my_fputc>

    USART1_TDR = ch;
20000276:	4b02      	ldr	r3, [pc, #8]	; (20000280 <my_fputc+0x14>)
20000278:	6018      	str	r0, [r3, #0]
    return ch;
}
2000027a:	4770      	bx	lr
2000027c:	4001381c 	.word	0x4001381c
20000280:	40013828 	.word	0x40013828

20000284 <my_fputs>:


int my_fputs(char *s){
20000284:	b510      	push	{r4, lr}
20000286:	4604      	mov	r4, r0
	for(;*s;s++)  
20000288:	7820      	ldrb	r0, [r4, #0]
2000028a:	b118      	cbz	r0, 20000294 <my_fputs+0x10>
		my_fputc( *s);
2000028c:	f7ff ffee 	bl	2000026c <my_fputc>
	for(;*s;s++)  
20000290:	3401      	adds	r4, #1
20000292:	e7f9      	b.n	20000288 <my_fputs+0x4>
	return 0;
}
20000294:	bd10      	pop	{r4, pc}

20000296 <loop>:

void loop(char ch){

	while(   (USART1_ISR & (0x1 <<6)) == 0  ){
20000296:	4b06      	ldr	r3, [pc, #24]	; (200002b0 <loop+0x1a>)
20000298:	681b      	ldr	r3, [r3, #0]
2000029a:	f013 0f40 	tst.w	r3, #64	; 0x40
2000029e:	d105      	bne.n	200002ac <loop+0x16>
		 USART1_TDR  =   USART1_RDR & 0xff;
200002a0:	4b04      	ldr	r3, [pc, #16]	; (200002b4 <loop+0x1e>)
200002a2:	681b      	ldr	r3, [r3, #0]
200002a4:	b2db      	uxtb	r3, r3
200002a6:	4a04      	ldr	r2, [pc, #16]	; (200002b8 <loop+0x22>)
200002a8:	6013      	str	r3, [r2, #0]
200002aa:	e7f4      	b.n	20000296 <loop>
	}
    
}
200002ac:	4770      	bx	lr
200002ae:	bf00      	nop
200002b0:	4001381c 	.word	0x4001381c
200002b4:	40013824 	.word	0x40013824
200002b8:	40013828 	.word	0x40013828

200002bc <uart_init>:

void uart_init(){
	
	//gpio init
	RCC_AHB2ENR   |= 1<<0;     //enable gpioa clock;
200002bc:	4a28      	ldr	r2, [pc, #160]	; (20000360 <uart_init+0xa4>)
200002be:	6813      	ldr	r3, [r2, #0]
200002c0:	f043 0301 	orr.w	r3, r3, #1
200002c4:	6013      	str	r3, [r2, #0]
	
	GPIOA_MODER   &=  ~(0x3 <<18);
200002c6:	f04f 4390 	mov.w	r3, #1207959552	; 0x48000000
200002ca:	681a      	ldr	r2, [r3, #0]
200002cc:	f422 2240 	bic.w	r2, r2, #786432	; 0xc0000
200002d0:	601a      	str	r2, [r3, #0]
	GPIOA_MODER   &=  ~(0x3 <<20);
200002d2:	681a      	ldr	r2, [r3, #0]
200002d4:	f422 1240 	bic.w	r2, r2, #3145728	; 0x300000
200002d8:	601a      	str	r2, [r3, #0]
	GPIOA_MODER   |=  (0x2 << 18)| ( 0x2 << 20) ; //config gpio 9,10 as alternate function
200002da:	681a      	ldr	r2, [r3, #0]
200002dc:	f442 1220 	orr.w	r2, r2, #2621440	; 0x280000
200002e0:	601a      	str	r2, [r3, #0]
	
	
	GPIOA_OTYPER  &= ~( 1<<9);   //push pull
200002e2:	3304      	adds	r3, #4
200002e4:	681a      	ldr	r2, [r3, #0]
200002e6:	f422 7200 	bic.w	r2, r2, #512	; 0x200
200002ea:	601a      	str	r2, [r3, #0]
	GPIOA_OTYPER  &= ~( 1<<10);  //push pull
200002ec:	681a      	ldr	r2, [r3, #0]
200002ee:	f422 6280 	bic.w	r2, r2, #1024	; 0x400
200002f2:	601a      	str	r2, [r3, #0]
	GPIOA_OSPEEDR |=  (0x3 << 18) | (0x03 <<20)  ;   //very high speed;
200002f4:	4a1b      	ldr	r2, [pc, #108]	; (20000364 <uart_init+0xa8>)
200002f6:	6813      	ldr	r3, [r2, #0]
200002f8:	f443 1370 	orr.w	r3, r3, #3932160	; 0x3c0000
200002fc:	6013      	str	r3, [r2, #0]
	GPIOA_AFRH    |=  (0x7<<4) | (0x7<<8);   //gpio9,10
200002fe:	321c      	adds	r2, #28
20000300:	6813      	ldr	r3, [r2, #0]
20000302:	f443 63ee 	orr.w	r3, r3, #1904	; 0x770
20000306:	6013      	str	r3, [r2, #0]
	
	
	//uart init
	//Program the Baud Rate, Word Length, Stop Bit, Parity, Prescaler value , Hardware
    //    flow control and Mode (Receiver/Transmitter) in the huart handle Init structure.
        RCC_APB2ENR   |= 1<<14;   //enable usart1 clock;
20000308:	4a17      	ldr	r2, [pc, #92]	; (20000368 <uart_init+0xac>)
2000030a:	6813      	ldr	r3, [r2, #0]
2000030c:	f443 4380 	orr.w	r3, r3, #16384	; 0x4000
20000310:	6013      	str	r3, [r2, #0]
	
	USART1_CR1 = 0;	
20000312:	4b16      	ldr	r3, [pc, #88]	; (2000036c <uart_init+0xb0>)
20000314:	2200      	movs	r2, #0
20000316:	601a      	str	r2, [r3, #0]
	USART1_CR1  &= ~(0x1 << 12);   //M0  
20000318:	681a      	ldr	r2, [r3, #0]
2000031a:	f422 5280 	bic.w	r2, r2, #4096	; 0x1000
2000031e:	601a      	str	r2, [r3, #0]
	USART1_CR1  &= ~(0x1 << 28);   //M1    M1:M0==0  8 bit length;
20000320:	681a      	ldr	r2, [r3, #0]
20000322:	f022 5280 	bic.w	r2, r2, #268435456	; 0x10000000
20000326:	601a      	str	r2, [r3, #0]
	
	//USART1_CR1  |=  (1 << 15);       //oversameple  8 enabled;
	USART1_CR1  &=  ~(0x1 <<10);       //none  parity;
20000328:	681a      	ldr	r2, [r3, #0]
2000032a:	f422 6280 	bic.w	r2, r2, #1024	; 0x400
2000032e:	601a      	str	r2, [r3, #0]
	USART1_CR2  &= ~(0x03 << 12);      //1 stop bit;
20000330:	490f      	ldr	r1, [pc, #60]	; (20000370 <uart_init+0xb4>)
20000332:	680a      	ldr	r2, [r1, #0]
20000334:	f422 5240 	bic.w	r2, r2, #12288	; 0x3000
20000338:	600a      	str	r2, [r1, #0]
	USART1_CR3  &=  ~(0x3 << 8);       //disable hw flow;
2000033a:	3104      	adds	r1, #4
2000033c:	680a      	ldr	r2, [r1, #0]
2000033e:	f422 7240 	bic.w	r2, r2, #768	; 0x300
20000342:	600a      	str	r2, [r1, #0]
	
	//USART1_BRR = 0x2b3; //115200 baud rate;  // (2*40000000/115200) ===694.44(0x2b6h)     0x2b  and  (6>>1)  ==   2b3  for oversameple 8
	USART1_BRR = 0x15b; //115200 baud rate;  // (40 000 000/115200) ===347(0x15bh)     for oversameple 16
20000344:	4a0b      	ldr	r2, [pc, #44]	; (20000374 <uart_init+0xb8>)
20000346:	f240 115b 	movw	r1, #347	; 0x15b
2000034a:	6011      	str	r1, [r2, #0]
	
	USART1_CR1  |=  (0x1 << 2 ) | (0x1 <<3) ;  //enable tx&rx;
2000034c:	681a      	ldr	r2, [r3, #0]
2000034e:	f042 020c 	orr.w	r2, r2, #12
20000352:	601a      	str	r2, [r3, #0]
	USART1_CR1 |= 0x1 << 0;   //enable usart;
20000354:	681a      	ldr	r2, [r3, #0]
20000356:	f042 0201 	orr.w	r2, r2, #1
2000035a:	601a      	str	r2, [r3, #0]
	
}
2000035c:	4770      	bx	lr
2000035e:	bf00      	nop
20000360:	4002104c 	.word	0x4002104c
20000364:	48000008 	.word	0x48000008
20000368:	40021060 	.word	0x40021060
2000036c:	40013800 	.word	0x40013800
20000370:	40013804 	.word	0x40013804
20000374:	4001380c 	.word	0x4001380c

20000378 <light_red_led>:

void light_red_led(){
	
	//enable gpioe  clock
	RCC_AHB2ENR  |= 1<<4;
20000378:	4a0d      	ldr	r2, [pc, #52]	; (200003b0 <light_red_led+0x38>)
2000037a:	6813      	ldr	r3, [r2, #0]
2000037c:	f043 0310 	orr.w	r3, r3, #16
20000380:	6013      	str	r3, [r2, #0]

	//config  gpioe-7 as output 
	GPIOE_MODER = 0;
20000382:	4b0c      	ldr	r3, [pc, #48]	; (200003b4 <light_red_led+0x3c>)
20000384:	2200      	movs	r2, #0
20000386:	601a      	str	r2, [r3, #0]
	GPIOE_MODER |=  (0x01 << 14);   //output
20000388:	681a      	ldr	r2, [r3, #0]
2000038a:	f442 4280 	orr.w	r2, r2, #16384	; 0x4000
2000038e:	601a      	str	r2, [r3, #0]
	GPIOE_OTYPER  &=  ~(1<<7);   //push-pull
20000390:	4a09      	ldr	r2, [pc, #36]	; (200003b8 <light_red_led+0x40>)
20000392:	6813      	ldr	r3, [r2, #0]
20000394:	f023 0380 	bic.w	r3, r3, #128	; 0x80
20000398:	6013      	str	r3, [r2, #0]
	GPIOE_PUPDR &= ~(0x03 <<7);  //no pull up-down.
2000039a:	3208      	adds	r2, #8
2000039c:	6813      	ldr	r3, [r2, #0]
2000039e:	f423 73c0 	bic.w	r3, r3, #384	; 0x180
200003a2:	6013      	str	r3, [r2, #0]
	GPIOE_ODR   &= ~(1<<7); //light  Red led
200003a4:	3208      	adds	r2, #8
200003a6:	6813      	ldr	r3, [r2, #0]
200003a8:	f023 0380 	bic.w	r3, r3, #128	; 0x80
200003ac:	6013      	str	r3, [r2, #0]
}
200003ae:	4770      	bx	lr
200003b0:	4002104c 	.word	0x4002104c
200003b4:	48001000 	.word	0x48001000
200003b8:	48001004 	.word	0x48001004

200003bc <main>:
	
int main(){
200003bc:	b508      	push	{r3, lr}
	
    SystemInit();
200003be:	f7ff ff11 	bl	200001e4 <SystemInit>
    SCB_VTOR = 0x20000000;
200003c2:	4b08      	ldr	r3, [pc, #32]	; (200003e4 <main+0x28>)
200003c4:	f04f 5200 	mov.w	r2, #536870912	; 0x20000000
200003c8:	601a      	str	r2, [r3, #0]
    light_red_led();
200003ca:	f7ff ffd5 	bl	20000378 <light_red_led>
	
	uart_init();
200003ce:	f7ff ff75 	bl	200002bc <uart_init>
	my_fputs("hello ARM world\r\n");
200003d2:	4805      	ldr	r0, [pc, #20]	; (200003e8 <main+0x2c>)
200003d4:	f7ff ff56 	bl	20000284 <my_fputs>
	my_fputs(str);
200003d8:	4b04      	ldr	r3, [pc, #16]	; (200003ec <main+0x30>)
200003da:	6818      	ldr	r0, [r3, #0]
200003dc:	f7ff ff52 	bl	20000284 <my_fputs>
    while(1){  
200003e0:	e7fe      	b.n	200003e0 <main+0x24>
200003e2:	bf00      	nop
200003e4:	e000ed08 	.word	0xe000ed08
200003e8:	200003f0 	.word	0x200003f0
200003ec:	20000418 	.word	0x20000418
