Archive member included to satisfy reference by file (symbol)

/home1/zhaobaisheng/gcc-arm-none-eabi-9-2019-q4-major/bin/../lib/gcc/arm-none-eabi/9.2.1/../../../../arm-none-eabi/lib/thumb/v7e-m+fp/hard/libc_nano.a(lib_a-exit.o)
                              /home1/zhaobaisheng/gcc-arm-none-eabi-9-2019-q4-major/bin/../lib/gcc/arm-none-eabi/9.2.1/../../../../arm-none-eabi/lib/thumb/v7e-m+fp/hard/crt0.o (exit)
/home1/zhaobaisheng/gcc-arm-none-eabi-9-2019-q4-major/bin/../lib/gcc/arm-none-eabi/9.2.1/../../../../arm-none-eabi/lib/thumb/v7e-m+fp/hard/libc_nano.a(lib_a-impure.o)
                              /home1/zhaobaisheng/gcc-arm-none-eabi-9-2019-q4-major/bin/../lib/gcc/arm-none-eabi/9.2.1/../../../../arm-none-eabi/lib/thumb/v7e-m+fp/hard/libc_nano.a(lib_a-exit.o) (_global_impure_ptr)
/home1/zhaobaisheng/gcc-arm-none-eabi-9-2019-q4-major/bin/../lib/gcc/arm-none-eabi/9.2.1/../../../../arm-none-eabi/lib/thumb/v7e-m+fp/hard/libc_nano.a(lib_a-init.o)
                              /home1/zhaobaisheng/gcc-arm-none-eabi-9-2019-q4-major/bin/../lib/gcc/arm-none-eabi/9.2.1/../../../../arm-none-eabi/lib/thumb/v7e-m+fp/hard/crt0.o (__libc_init_array)
/home1/zhaobaisheng/gcc-arm-none-eabi-9-2019-q4-major/bin/../lib/gcc/arm-none-eabi/9.2.1/../../../../arm-none-eabi/lib/thumb/v7e-m+fp/hard/libc_nano.a(lib_a-memset.o)
                              /home1/zhaobaisheng/gcc-arm-none-eabi-9-2019-q4-major/bin/../lib/gcc/arm-none-eabi/9.2.1/../../../../arm-none-eabi/lib/thumb/v7e-m+fp/hard/crt0.o (memset)
/home1/zhaobaisheng/gcc-arm-none-eabi-9-2019-q4-major/bin/../lib/gcc/arm-none-eabi/9.2.1/../../../../arm-none-eabi/lib/thumb/v7e-m+fp/hard/libnosys.a(_exit.o)
                              /home1/zhaobaisheng/gcc-arm-none-eabi-9-2019-q4-major/bin/../lib/gcc/arm-none-eabi/9.2.1/../../../../arm-none-eabi/lib/thumb/v7e-m+fp/hard/libc_nano.a(lib_a-exit.o) (_exit)

Discarded input sections

 .text          0x0000000000000000        0x0 /home1/zhaobaisheng/gcc-arm-none-eabi-9-2019-q4-major/bin/../lib/gcc/arm-none-eabi/9.2.1/thumb/v7e-m+fp/hard/crti.o
 .data          0x0000000000000000        0x0 /home1/zhaobaisheng/gcc-arm-none-eabi-9-2019-q4-major/bin/../lib/gcc/arm-none-eabi/9.2.1/thumb/v7e-m+fp/hard/crti.o
 .bss           0x0000000000000000        0x0 /home1/zhaobaisheng/gcc-arm-none-eabi-9-2019-q4-major/bin/../lib/gcc/arm-none-eabi/9.2.1/thumb/v7e-m+fp/hard/crti.o
 .data          0x0000000000000000        0x4 /home1/zhaobaisheng/gcc-arm-none-eabi-9-2019-q4-major/bin/../lib/gcc/arm-none-eabi/9.2.1/thumb/v7e-m+fp/hard/crtbegin.o
 .text          0x0000000000000000       0x74 /home1/zhaobaisheng/gcc-arm-none-eabi-9-2019-q4-major/bin/../lib/gcc/arm-none-eabi/9.2.1/../../../../arm-none-eabi/lib/thumb/v7e-m+fp/hard/crt0.o
 .data          0x0000000000000000        0x0 /home1/zhaobaisheng/gcc-arm-none-eabi-9-2019-q4-major/bin/../lib/gcc/arm-none-eabi/9.2.1/../../../../arm-none-eabi/lib/thumb/v7e-m+fp/hard/crt0.o
 .bss           0x0000000000000000        0x0 /home1/zhaobaisheng/gcc-arm-none-eabi-9-2019-q4-major/bin/../lib/gcc/arm-none-eabi/9.2.1/../../../../arm-none-eabi/lib/thumb/v7e-m+fp/hard/crt0.o
 .ARM.extab     0x0000000000000000        0x0 /home1/zhaobaisheng/gcc-arm-none-eabi-9-2019-q4-major/bin/../lib/gcc/arm-none-eabi/9.2.1/../../../../arm-none-eabi/lib/thumb/v7e-m+fp/hard/crt0.o
 .ARM.exidx     0x0000000000000000        0x8 /home1/zhaobaisheng/gcc-arm-none-eabi-9-2019-q4-major/bin/../lib/gcc/arm-none-eabi/9.2.1/../../../../arm-none-eabi/lib/thumb/v7e-m+fp/hard/crt0.o
 .ARM.attributes
                0x0000000000000000       0x1c /home1/zhaobaisheng/gcc-arm-none-eabi-9-2019-q4-major/bin/../lib/gcc/arm-none-eabi/9.2.1/../../../../arm-none-eabi/lib/thumb/v7e-m+fp/hard/crt0.o
 .text          0x0000000000000000        0x0 build/main.o
 .data          0x0000000000000000        0x0 build/main.o
 .bss           0x0000000000000000        0x0 build/main.o
 .text.Error_Handler
                0x0000000000000000        0x2 build/main.o
 .text          0x0000000000000000       0x14 build/startup_stm32l475xx.o
 .data          0x0000000000000000        0x0 build/startup_stm32l475xx.o
Memory Configuration

Name             Origin             Length             Attributes
RAM              0x0000000020000000 0x0000000000018000 xrw
RAM2             0x0000000010000000 0x0000000000008000 xrw
FLASH            0x0000000008000000 0x0000000000080000 xr
*default*        0x0000000000000000 0xffffffffffffffff

Linker script and memory map

LOAD /home1/zhaobaisheng/gcc-arm-none-eabi-9-2019-q4-major/bin/../lib/gcc/arm-none-eabi/9.2.1/thumb/v7e-m+fp/hard/crti.o
LOAD /home1/zhaobaisheng/gcc-arm-none-eabi-9-2019-q4-major/bin/../lib/gcc/arm-none-eabi/9.2.1/thumb/v7e-m+fp/hard/crtbegin.o
LOAD /home1/zhaobaisheng/gcc-arm-none-eabi-9-2019-q4-major/bin/../lib/gcc/arm-none-eabi/9.2.1/../../../../arm-none-eabi/lib/thumb/v7e-m+fp/hard/crt0.o
LOAD build/main.o
LOAD build/startup_stm32l475xx.o
LOAD /home1/zhaobaisheng/gcc-arm-none-eabi-9-2019-q4-major/bin/../lib/gcc/arm-none-eabi/9.2.1/../../../../arm-none-eabi/lib/thumb/v7e-m+fp/hard/libc_nano.a
LOAD /home1/zhaobaisheng/gcc-arm-none-eabi-9-2019-q4-major/bin/../lib/gcc/arm-none-eabi/9.2.1/../../../../arm-none-eabi/lib/thumb/v7e-m+fp/hard/libm.a
LOAD /home1/zhaobaisheng/gcc-arm-none-eabi-9-2019-q4-major/bin/../lib/gcc/arm-none-eabi/9.2.1/../../../../arm-none-eabi/lib/thumb/v7e-m+fp/hard/libnosys.a
START GROUP
LOAD /home1/zhaobaisheng/gcc-arm-none-eabi-9-2019-q4-major/bin/../lib/gcc/arm-none-eabi/9.2.1/thumb/v7e-m+fp/hard/libgcc.a
LOAD /home1/zhaobaisheng/gcc-arm-none-eabi-9-2019-q4-major/bin/../lib/gcc/arm-none-eabi/9.2.1/../../../../arm-none-eabi/lib/thumb/v7e-m+fp/hard/libc_nano.a
END GROUP
START GROUP
LOAD /home1/zhaobaisheng/gcc-arm-none-eabi-9-2019-q4-major/bin/../lib/gcc/arm-none-eabi/9.2.1/thumb/v7e-m+fp/hard/libgcc.a
LOAD /home1/zhaobaisheng/gcc-arm-none-eabi-9-2019-q4-major/bin/../lib/gcc/arm-none-eabi/9.2.1/../../../../arm-none-eabi/lib/thumb/v7e-m+fp/hard/libc_nano.a
END GROUP
LOAD /home1/zhaobaisheng/gcc-arm-none-eabi-9-2019-q4-major/bin/../lib/gcc/arm-none-eabi/9.2.1/thumb/v7e-m+fp/hard/crtend.o
LOAD /home1/zhaobaisheng/gcc-arm-none-eabi-9-2019-q4-major/bin/../lib/gcc/arm-none-eabi/9.2.1/thumb/v7e-m+fp/hard/crtn.o
                0x0000000020018000                _estack = 0x20018000
                0x0000000000000200                _Min_Heap_Size = 0x200
                0x0000000000000400                _Min_Stack_Size = 0x400

.isr_vector     0x0000000008000000      0x188
                0x0000000008000000                . = ALIGN (0x8)
 *(.isr_vector)
 .isr_vector    0x0000000008000000      0x188 build/startup_stm32l475xx.o
                0x0000000008000000                g_pfnVectors
                0x0000000008000188                . = ALIGN (0x8)

.text           0x0000000008000188       0xf8
                0x0000000008000188                . = ALIGN (0x8)
 *(.text)
 .text          0x0000000008000188       0x40 /home1/zhaobaisheng/gcc-arm-none-eabi-9-2019-q4-major/bin/../lib/gcc/arm-none-eabi/9.2.1/thumb/v7e-m+fp/hard/crtbegin.o
 *(.text*)
 .text.SystemInit
                0x00000000080001c8        0x2 build/main.o
                0x00000000080001c8                SystemInit
 .text.main     0x00000000080001ca        0x2 build/main.o
                0x00000000080001ca                main
 .text.Reset_Handler
                0x00000000080001cc       0x50 build/startup_stm32l475xx.o
                0x00000000080001cc                Reset_Handler
 .text.Default_Handler
                0x000000000800021c        0x2 build/startup_stm32l475xx.o
                0x000000000800021c                RTC_Alarm_IRQHandler
                0x000000000800021c                EXTI2_IRQHandler
                0x000000000800021c                TIM8_TRG_COM_IRQHandler
                0x000000000800021c                TIM8_CC_IRQHandler
                0x000000000800021c                DebugMon_Handler
                0x000000000800021c                TIM1_CC_IRQHandler
                0x000000000800021c                TSC_IRQHandler
                0x000000000800021c                HardFault_Handler
                0x000000000800021c                SysTick_Handler
                0x000000000800021c                TAMP_STAMP_IRQHandler
                0x000000000800021c                PendSV_Handler
                0x000000000800021c                NMI_Handler
                0x000000000800021c                EXTI3_IRQHandler
                0x000000000800021c                LPTIM2_IRQHandler
                0x000000000800021c                DFSDM1_FLT1_IRQHandler
                0x000000000800021c                I2C3_ER_IRQHandler
                0x000000000800021c                DFSDM1_FLT2_IRQHandler
                0x000000000800021c                EXTI0_IRQHandler
                0x000000000800021c                I2C2_EV_IRQHandler
                0x000000000800021c                CAN1_RX0_IRQHandler
                0x000000000800021c                FPU_IRQHandler
                0x000000000800021c                TIM1_UP_TIM16_IRQHandler
                0x000000000800021c                UsageFault_Handler
                0x000000000800021c                ADC1_2_IRQHandler
                0x000000000800021c                SPI1_IRQHandler
                0x000000000800021c                TIM6_DAC_IRQHandler
                0x000000000800021c                TIM8_UP_IRQHandler
                0x000000000800021c                DMA2_Channel2_IRQHandler
                0x000000000800021c                DMA1_Channel4_IRQHandler
                0x000000000800021c                SAI2_IRQHandler
                0x000000000800021c                DFSDM1_FLT3_IRQHandler
                0x000000000800021c                USART3_IRQHandler
                0x000000000800021c                DMA1_Channel7_IRQHandler
                0x000000000800021c                CAN1_RX1_IRQHandler
                0x000000000800021c                UART5_IRQHandler
                0x000000000800021c                ADC3_IRQHandler
                0x000000000800021c                TIM4_IRQHandler
                0x000000000800021c                DMA2_Channel1_IRQHandler
                0x000000000800021c                QUADSPI_IRQHandler
                0x000000000800021c                I2C1_EV_IRQHandler
                0x000000000800021c                DMA1_Channel6_IRQHandler
                0x000000000800021c                UART4_IRQHandler
                0x000000000800021c                DMA2_Channel4_IRQHandler
                0x000000000800021c                TIM3_IRQHandler
                0x000000000800021c                RCC_IRQHandler
                0x000000000800021c                DMA1_Channel1_IRQHandler
                0x000000000800021c                Default_Handler
                0x000000000800021c                DMA2_Channel7_IRQHandler
                0x000000000800021c                EXTI15_10_IRQHandler
                0x000000000800021c                TIM7_IRQHandler
                0x000000000800021c                SDMMC1_IRQHandler
                0x000000000800021c                TIM5_IRQHandler
                0x000000000800021c                I2C3_EV_IRQHandler
                0x000000000800021c                EXTI9_5_IRQHandler
                0x000000000800021c                RTC_WKUP_IRQHandler
                0x000000000800021c                PVD_PVM_IRQHandler
                0x000000000800021c                SPI2_IRQHandler
                0x000000000800021c                MemManage_Handler
                0x000000000800021c                CAN1_TX_IRQHandler
                0x000000000800021c                SVC_Handler
                0x000000000800021c                DMA2_Channel5_IRQHandler
                0x000000000800021c                DMA1_Channel5_IRQHandler
                0x000000000800021c                EXTI4_IRQHandler
                0x000000000800021c                RNG_IRQHandler
                0x000000000800021c                TIM1_TRG_COM_TIM17_IRQHandler
                0x000000000800021c                DMA1_Channel3_IRQHandler
                0x000000000800021c                COMP_IRQHandler
                0x000000000800021c                WWDG_IRQHandler
                0x000000000800021c                LPUART1_IRQHandler
                0x000000000800021c                DMA2_Channel6_IRQHandler
                0x000000000800021c                TIM2_IRQHandler
                0x000000000800021c                EXTI1_IRQHandler
                0x000000000800021c                USART2_IRQHandler
                0x000000000800021c                DFSDM1_FLT0_IRQHandler
                0x000000000800021c                I2C2_ER_IRQHandler
                0x000000000800021c                DMA1_Channel2_IRQHandler
                0x000000000800021c                TIM8_BRK_IRQHandler
                0x000000000800021c                CAN1_SCE_IRQHandler
                0x000000000800021c                FLASH_IRQHandler
                0x000000000800021c                BusFault_Handler
                0x000000000800021c                USART1_IRQHandler
                0x000000000800021c                OTG_FS_IRQHandler
                0x000000000800021c                SPI3_IRQHandler
                0x000000000800021c                I2C1_ER_IRQHandler
                0x000000000800021c                FMC_IRQHandler
                0x000000000800021c                SWPMI1_IRQHandler
                0x000000000800021c                LPTIM1_IRQHandler
                0x000000000800021c                SAI1_IRQHandler
                0x000000000800021c                DMA2_Channel3_IRQHandler
                0x000000000800021c                TIM1_BRK_TIM15_IRQHandler
 *fill*         0x000000000800021e        0x2 
 .text.__libc_init_array
                0x0000000008000220       0x48 /home1/zhaobaisheng/gcc-arm-none-eabi-9-2019-q4-major/bin/../lib/gcc/arm-none-eabi/9.2.1/../../../../arm-none-eabi/lib/thumb/v7e-m+fp/hard/libc_nano.a(lib_a-init.o)
                0x0000000008000220                __libc_init_array
 *(.glue_7)
 .glue_7        0x0000000008000268        0x0 linker stubs
 *(.glue_7t)
 .glue_7t       0x0000000008000268        0x0 linker stubs
 *(.eh_frame)
 .eh_frame      0x0000000008000268        0x0 /home1/zhaobaisheng/gcc-arm-none-eabi-9-2019-q4-major/bin/../lib/gcc/arm-none-eabi/9.2.1/thumb/v7e-m+fp/hard/crtbegin.o
 *(.init)
 .init          0x0000000008000268        0x4 /home1/zhaobaisheng/gcc-arm-none-eabi-9-2019-q4-major/bin/../lib/gcc/arm-none-eabi/9.2.1/thumb/v7e-m+fp/hard/crti.o
                0x0000000008000268                _init
 .init          0x000000000800026c        0x8 /home1/zhaobaisheng/gcc-arm-none-eabi-9-2019-q4-major/bin/../lib/gcc/arm-none-eabi/9.2.1/thumb/v7e-m+fp/hard/crtn.o
 *(.fini)
 .fini          0x0000000008000274        0x4 /home1/zhaobaisheng/gcc-arm-none-eabi-9-2019-q4-major/bin/../lib/gcc/arm-none-eabi/9.2.1/thumb/v7e-m+fp/hard/crti.o
                0x0000000008000274                _fini
 .fini          0x0000000008000278        0x8 /home1/zhaobaisheng/gcc-arm-none-eabi-9-2019-q4-major/bin/../lib/gcc/arm-none-eabi/9.2.1/thumb/v7e-m+fp/hard/crtn.o
                0x0000000008000280                . = ALIGN (0x8)
                0x0000000008000280                _etext = .

.vfp11_veneer   0x0000000008000280        0x0
 .vfp11_veneer  0x0000000008000280        0x0 linker stubs

.v4_bx          0x0000000008000280        0x0
 .v4_bx         0x0000000008000280        0x0 linker stubs

.iplt           0x0000000008000280        0x0
 .iplt          0x0000000008000280        0x0 /home1/zhaobaisheng/gcc-arm-none-eabi-9-2019-q4-major/bin/../lib/gcc/arm-none-eabi/9.2.1/thumb/v7e-m+fp/hard/crtbegin.o

.rel.dyn        0x0000000008000280        0x0
 .rel.iplt      0x0000000008000280        0x0 /home1/zhaobaisheng/gcc-arm-none-eabi-9-2019-q4-major/bin/../lib/gcc/arm-none-eabi/9.2.1/thumb/v7e-m+fp/hard/crtbegin.o

.rodata         0x0000000008000280        0x0
                0x0000000008000280                . = ALIGN (0x8)
 *(.rodata)
 *(.rodata*)
                0x0000000008000280                . = ALIGN (0x8)

.ARM.extab      0x0000000008000280        0x0
                0x0000000008000280                . = ALIGN (0x8)
 *(.ARM.extab* .gnu.linkonce.armextab.*)
                0x0000000008000280                . = ALIGN (0x8)

.ARM            0x0000000008000280        0x0
                0x0000000008000280                . = ALIGN (0x8)
                0x0000000008000280                __exidx_start = .
 *(.ARM.exidx*)
                0x0000000008000280                __exidx_end = .
                0x0000000008000280                . = ALIGN (0x8)

.preinit_array  0x0000000008000280        0x0
                0x0000000008000280                . = ALIGN (0x8)
                0x0000000008000280                PROVIDE (__preinit_array_start = .)
 *(.preinit_array*)
                0x0000000008000280                PROVIDE (__preinit_array_end = .)
                0x0000000008000280                . = ALIGN (0x8)

.init_array     0x0000000008000280        0x8
                0x0000000008000280                . = ALIGN (0x8)
                0x0000000008000280                PROVIDE (__init_array_start = .)
 *(SORT_BY_NAME(.init_array.*))
 *(.init_array*)
 .init_array    0x0000000008000280        0x4 /home1/zhaobaisheng/gcc-arm-none-eabi-9-2019-q4-major/bin/../lib/gcc/arm-none-eabi/9.2.1/thumb/v7e-m+fp/hard/crtbegin.o
                0x0000000008000284                PROVIDE (__init_array_end = .)
                0x0000000008000288                . = ALIGN (0x8)
 *fill*         0x0000000008000284        0x4 

.fini_array     0x0000000008000288        0x8
                0x0000000008000288                . = ALIGN (0x8)
                [!provide]                        PROVIDE (__fini_array_start = .)
 *(SORT_BY_NAME(.fini_array.*))
 *(.fini_array*)
 .fini_array    0x0000000008000288        0x4 /home1/zhaobaisheng/gcc-arm-none-eabi-9-2019-q4-major/bin/../lib/gcc/arm-none-eabi/9.2.1/thumb/v7e-m+fp/hard/crtbegin.o
                [!provide]                        PROVIDE (__fini_array_end = .)
                0x0000000008000290                . = ALIGN (0x8)
 *fill*         0x000000000800028c        0x4 
                0x0000000008000290                _sidata = LOADADDR (.data)

.data           0x0000000020000000        0x0 load address 0x0000000008000290
                0x0000000020000000                . = ALIGN (0x8)
                0x0000000020000000                _sdata = .
 *(.data)
 *(.data*)
                0x0000000020000000                . = ALIGN (0x8)
                0x0000000020000000                _edata = .

.igot.plt       0x0000000020000000        0x0 load address 0x0000000008000290
 .igot.plt      0x0000000020000000        0x0 /home1/zhaobaisheng/gcc-arm-none-eabi-9-2019-q4-major/bin/../lib/gcc/arm-none-eabi/9.2.1/thumb/v7e-m+fp/hard/crtbegin.o
                0x0000000020000000                . = ALIGN (0x4)

.bss            0x0000000020000000       0x1c load address 0x0000000008000290
                0x0000000020000000                _sbss = .
                0x0000000020000000                __bss_start__ = _sbss
 *(.bss)
 .bss           0x0000000020000000       0x1c /home1/zhaobaisheng/gcc-arm-none-eabi-9-2019-q4-major/bin/../lib/gcc/arm-none-eabi/9.2.1/thumb/v7e-m+fp/hard/crtbegin.o
 *(.bss*)
 *(COMMON)
                0x000000002000001c                . = ALIGN (0x4)
                0x000000002000001c                _ebss = .
                0x000000002000001c                __bss_end__ = _ebss

._user_heap_stack
                0x000000002000001c      0x604 load address 0x0000000008000290
                0x0000000020000020                . = ALIGN (0x8)
 *fill*         0x000000002000001c        0x4 
                [!provide]                        PROVIDE (end = .)
                [!provide]                        PROVIDE (_end = .)
                0x0000000020000220                . = (. + _Min_Heap_Size)
 *fill*         0x0000000020000020      0x200 
                0x0000000020000620                . = (. + _Min_Stack_Size)
 *fill*         0x0000000020000220      0x400 
                0x0000000020000620                . = ALIGN (0x8)

/DISCARD/
 libc.a(*)
 libm.a(*)
 libgcc.a(*)

.ARM.attributes
                0x0000000000000000       0x30
 *(.ARM.attributes)
 .ARM.attributes
                0x0000000000000000       0x1e /home1/zhaobaisheng/gcc-arm-none-eabi-9-2019-q4-major/bin/../lib/gcc/arm-none-eabi/9.2.1/thumb/v7e-m+fp/hard/crti.o
 .ARM.attributes
                0x000000000000001e       0x34 /home1/zhaobaisheng/gcc-arm-none-eabi-9-2019-q4-major/bin/../lib/gcc/arm-none-eabi/9.2.1/thumb/v7e-m+fp/hard/crtbegin.o
 .ARM.attributes
                0x0000000000000052       0x34 build/main.o
 .ARM.attributes
                0x0000000000000086       0x21 build/startup_stm32l475xx.o
 .ARM.attributes
                0x00000000000000a7       0x34 /home1/zhaobaisheng/gcc-arm-none-eabi-9-2019-q4-major/bin/../lib/gcc/arm-none-eabi/9.2.1/../../../../arm-none-eabi/lib/thumb/v7e-m+fp/hard/libc_nano.a(lib_a-init.o)
 .ARM.attributes
                0x00000000000000db       0x1e /home1/zhaobaisheng/gcc-arm-none-eabi-9-2019-q4-major/bin/../lib/gcc/arm-none-eabi/9.2.1/thumb/v7e-m+fp/hard/crtn.o
OUTPUT(build/tmp_delete1.elf elf32-littlearm)

.debug_info     0x0000000000000000       0x98
 .debug_info    0x0000000000000000       0x76 build/main.o
 .debug_info    0x0000000000000076       0x22 build/startup_stm32l475xx.o

.debug_abbrev   0x0000000000000000       0x81
 .debug_abbrev  0x0000000000000000       0x6f build/main.o
 .debug_abbrev  0x000000000000006f       0x12 build/startup_stm32l475xx.o

.debug_aranges  0x0000000000000000       0x58
 .debug_aranges
                0x0000000000000000       0x30 build/main.o
 .debug_aranges
                0x0000000000000030       0x28 build/startup_stm32l475xx.o

.debug_ranges   0x0000000000000000       0x40
 .debug_ranges  0x0000000000000000       0x20 build/main.o
 .debug_ranges  0x0000000000000020       0x20 build/startup_stm32l475xx.o

.debug_line     0x0000000000000000       0xe2
 .debug_line    0x0000000000000000       0x6d build/main.o
 .debug_line    0x000000000000006d       0x75 build/startup_stm32l475xx.o

.debug_str      0x0000000000000000      0x167
 .debug_str     0x0000000000000000      0x143 build/main.o
 .debug_str     0x0000000000000143       0x24 build/startup_stm32l475xx.o
                                         0x7b (size before relaxing)

.comment        0x0000000000000000       0x79
 .comment       0x0000000000000000       0x79 build/main.o
                                         0x7a (size before relaxing)

.debug_frame    0x0000000000000000       0x6c
 .debug_frame   0x0000000000000000       0x40 build/main.o
 .debug_frame   0x0000000000000040       0x2c /home1/zhaobaisheng/gcc-arm-none-eabi-9-2019-q4-major/bin/../lib/gcc/arm-none-eabi/9.2.1/../../../../arm-none-eabi/lib/thumb/v7e-m+fp/hard/libc_nano.a(lib_a-init.o)

Cross Reference Table

Symbol                                            File
ADC1_2_IRQHandler                                 build/startup_stm32l475xx.o
ADC3_IRQHandler                                   build/startup_stm32l475xx.o
BusFault_Handler                                  build/startup_stm32l475xx.o
CAN1_RX0_IRQHandler                               build/startup_stm32l475xx.o
CAN1_RX1_IRQHandler                               build/startup_stm32l475xx.o
CAN1_SCE_IRQHandler                               build/startup_stm32l475xx.o
CAN1_TX_IRQHandler                                build/startup_stm32l475xx.o
COMP_IRQHandler                                   build/startup_stm32l475xx.o
DFSDM1_FLT0_IRQHandler                            build/startup_stm32l475xx.o
DFSDM1_FLT1_IRQHandler                            build/startup_stm32l475xx.o
DFSDM1_FLT2_IRQHandler                            build/startup_stm32l475xx.o
DFSDM1_FLT3_IRQHandler                            build/startup_stm32l475xx.o
DMA1_Channel1_IRQHandler                          build/startup_stm32l475xx.o
DMA1_Channel2_IRQHandler                          build/startup_stm32l475xx.o
DMA1_Channel3_IRQHandler                          build/startup_stm32l475xx.o
DMA1_Channel4_IRQHandler                          build/startup_stm32l475xx.o
DMA1_Channel5_IRQHandler                          build/startup_stm32l475xx.o
DMA1_Channel6_IRQHandler                          build/startup_stm32l475xx.o
DMA1_Channel7_IRQHandler                          build/startup_stm32l475xx.o
DMA2_Channel1_IRQHandler                          build/startup_stm32l475xx.o
DMA2_Channel2_IRQHandler                          build/startup_stm32l475xx.o
DMA2_Channel3_IRQHandler                          build/startup_stm32l475xx.o
DMA2_Channel4_IRQHandler                          build/startup_stm32l475xx.o
DMA2_Channel5_IRQHandler                          build/startup_stm32l475xx.o
DMA2_Channel6_IRQHandler                          build/startup_stm32l475xx.o
DMA2_Channel7_IRQHandler                          build/startup_stm32l475xx.o
DebugMon_Handler                                  build/startup_stm32l475xx.o
Default_Handler                                   build/startup_stm32l475xx.o
EXTI0_IRQHandler                                  build/startup_stm32l475xx.o
EXTI15_10_IRQHandler                              build/startup_stm32l475xx.o
EXTI1_IRQHandler                                  build/startup_stm32l475xx.o
EXTI2_IRQHandler                                  build/startup_stm32l475xx.o
EXTI3_IRQHandler                                  build/startup_stm32l475xx.o
EXTI4_IRQHandler                                  build/startup_stm32l475xx.o
EXTI9_5_IRQHandler                                build/startup_stm32l475xx.o
Error_Handler                                     build/main.o
FLASH_IRQHandler                                  build/startup_stm32l475xx.o
FMC_IRQHandler                                    build/startup_stm32l475xx.o
FPU_IRQHandler                                    build/startup_stm32l475xx.o
HardFault_Handler                                 build/startup_stm32l475xx.o
I2C1_ER_IRQHandler                                build/startup_stm32l475xx.o
I2C1_EV_IRQHandler                                build/startup_stm32l475xx.o
I2C2_ER_IRQHandler                                build/startup_stm32l475xx.o
I2C2_EV_IRQHandler                                build/startup_stm32l475xx.o
I2C3_ER_IRQHandler                                build/startup_stm32l475xx.o
I2C3_EV_IRQHandler                                build/startup_stm32l475xx.o
LPTIM1_IRQHandler                                 build/startup_stm32l475xx.o
LPTIM2_IRQHandler                                 build/startup_stm32l475xx.o
LPUART1_IRQHandler                                build/startup_stm32l475xx.o
MemManage_Handler                                 build/startup_stm32l475xx.o
NMI_Handler                                       build/startup_stm32l475xx.o
OTG_FS_IRQHandler                                 build/startup_stm32l475xx.o
PVD_PVM_IRQHandler                                build/startup_stm32l475xx.o
PendSV_Handler                                    build/startup_stm32l475xx.o
QUADSPI_IRQHandler                                build/startup_stm32l475xx.o
RCC_IRQHandler                                    build/startup_stm32l475xx.o
RNG_IRQHandler                                    build/startup_stm32l475xx.o
RTC_Alarm_IRQHandler                              build/startup_stm32l475xx.o
RTC_WKUP_IRQHandler                               build/startup_stm32l475xx.o
Reset_Handler                                     build/startup_stm32l475xx.o
SAI1_IRQHandler                                   build/startup_stm32l475xx.o
SAI2_IRQHandler                                   build/startup_stm32l475xx.o
SDMMC1_IRQHandler                                 build/startup_stm32l475xx.o
SPI1_IRQHandler                                   build/startup_stm32l475xx.o
SPI2_IRQHandler                                   build/startup_stm32l475xx.o
SPI3_IRQHandler                                   build/startup_stm32l475xx.o
SVC_Handler                                       build/startup_stm32l475xx.o
SWPMI1_IRQHandler                                 build/startup_stm32l475xx.o
SysTick_Handler                                   build/startup_stm32l475xx.o
SystemInit                                        build/main.o
                                                  build/startup_stm32l475xx.o
TAMP_STAMP_IRQHandler                             build/startup_stm32l475xx.o
TIM1_BRK_TIM15_IRQHandler                         build/startup_stm32l475xx.o
TIM1_CC_IRQHandler                                build/startup_stm32l475xx.o
TIM1_TRG_COM_TIM17_IRQHandler                     build/startup_stm32l475xx.o
TIM1_UP_TIM16_IRQHandler                          build/startup_stm32l475xx.o
TIM2_IRQHandler                                   build/startup_stm32l475xx.o
TIM3_IRQHandler                                   build/startup_stm32l475xx.o
TIM4_IRQHandler                                   build/startup_stm32l475xx.o
TIM5_IRQHandler                                   build/startup_stm32l475xx.o
TIM6_DAC_IRQHandler                               build/startup_stm32l475xx.o
TIM7_IRQHandler                                   build/startup_stm32l475xx.o
TIM8_BRK_IRQHandler                               build/startup_stm32l475xx.o
TIM8_CC_IRQHandler                                build/startup_stm32l475xx.o
TIM8_TRG_COM_IRQHandler                           build/startup_stm32l475xx.o
TIM8_UP_IRQHandler                                build/startup_stm32l475xx.o
TSC_IRQHandler                                    build/startup_stm32l475xx.o
UART4_IRQHandler                                  build/startup_stm32l475xx.o
UART5_IRQHandler                                  build/startup_stm32l475xx.o
USART1_IRQHandler                                 build/startup_stm32l475xx.o
USART2_IRQHandler                                 build/startup_stm32l475xx.o
USART3_IRQHandler                                 build/startup_stm32l475xx.o
UsageFault_Handler                                build/startup_stm32l475xx.o
WWDG_IRQHandler                                   build/startup_stm32l475xx.o
__bss_end__                                       /home1/zhaobaisheng/gcc-arm-none-eabi-9-2019-q4-major/bin/../lib/gcc/arm-none-eabi/9.2.1/../../../../arm-none-eabi/lib/thumb/v7e-m+fp/hard/crt0.o
__bss_start__                                     /home1/zhaobaisheng/gcc-arm-none-eabi-9-2019-q4-major/bin/../lib/gcc/arm-none-eabi/9.2.1/../../../../arm-none-eabi/lib/thumb/v7e-m+fp/hard/crt0.o
__call_exitprocs                                  /home1/zhaobaisheng/gcc-arm-none-eabi-9-2019-q4-major/bin/../lib/gcc/arm-none-eabi/9.2.1/../../../../arm-none-eabi/lib/thumb/v7e-m+fp/hard/libc_nano.a(lib_a-exit.o)
__deregister_frame_info                           /home1/zhaobaisheng/gcc-arm-none-eabi-9-2019-q4-major/bin/../lib/gcc/arm-none-eabi/9.2.1/thumb/v7e-m+fp/hard/crtbegin.o
__dso_handle                                      /home1/zhaobaisheng/gcc-arm-none-eabi-9-2019-q4-major/bin/../lib/gcc/arm-none-eabi/9.2.1/thumb/v7e-m+fp/hard/crtbegin.o
__init_array_end                                  /home1/zhaobaisheng/gcc-arm-none-eabi-9-2019-q4-major/bin/../lib/gcc/arm-none-eabi/9.2.1/../../../../arm-none-eabi/lib/thumb/v7e-m+fp/hard/libc_nano.a(lib_a-init.o)
__init_array_start                                /home1/zhaobaisheng/gcc-arm-none-eabi-9-2019-q4-major/bin/../lib/gcc/arm-none-eabi/9.2.1/../../../../arm-none-eabi/lib/thumb/v7e-m+fp/hard/libc_nano.a(lib_a-init.o)
__libc_fini_array                                 /home1/zhaobaisheng/gcc-arm-none-eabi-9-2019-q4-major/bin/../lib/gcc/arm-none-eabi/9.2.1/../../../../arm-none-eabi/lib/thumb/v7e-m+fp/hard/crt0.o
__libc_init_array                                 /home1/zhaobaisheng/gcc-arm-none-eabi-9-2019-q4-major/bin/../lib/gcc/arm-none-eabi/9.2.1/../../../../arm-none-eabi/lib/thumb/v7e-m+fp/hard/libc_nano.a(lib_a-init.o)
                                                  build/startup_stm32l475xx.o
                                                  /home1/zhaobaisheng/gcc-arm-none-eabi-9-2019-q4-major/bin/../lib/gcc/arm-none-eabi/9.2.1/../../../../arm-none-eabi/lib/thumb/v7e-m+fp/hard/crt0.o
__preinit_array_end                               /home1/zhaobaisheng/gcc-arm-none-eabi-9-2019-q4-major/bin/../lib/gcc/arm-none-eabi/9.2.1/../../../../arm-none-eabi/lib/thumb/v7e-m+fp/hard/libc_nano.a(lib_a-init.o)
__preinit_array_start                             /home1/zhaobaisheng/gcc-arm-none-eabi-9-2019-q4-major/bin/../lib/gcc/arm-none-eabi/9.2.1/../../../../arm-none-eabi/lib/thumb/v7e-m+fp/hard/libc_nano.a(lib_a-init.o)
__register_frame_info                             /home1/zhaobaisheng/gcc-arm-none-eabi-9-2019-q4-major/bin/../lib/gcc/arm-none-eabi/9.2.1/thumb/v7e-m+fp/hard/crtbegin.o
__sf_fake_stderr                                  /home1/zhaobaisheng/gcc-arm-none-eabi-9-2019-q4-major/bin/../lib/gcc/arm-none-eabi/9.2.1/../../../../arm-none-eabi/lib/thumb/v7e-m+fp/hard/libc_nano.a(lib_a-impure.o)
__sf_fake_stdin                                   /home1/zhaobaisheng/gcc-arm-none-eabi-9-2019-q4-major/bin/../lib/gcc/arm-none-eabi/9.2.1/../../../../arm-none-eabi/lib/thumb/v7e-m+fp/hard/libc_nano.a(lib_a-impure.o)
__sf_fake_stdout                                  /home1/zhaobaisheng/gcc-arm-none-eabi-9-2019-q4-major/bin/../lib/gcc/arm-none-eabi/9.2.1/../../../../arm-none-eabi/lib/thumb/v7e-m+fp/hard/libc_nano.a(lib_a-impure.o)
__stack                                           /home1/zhaobaisheng/gcc-arm-none-eabi-9-2019-q4-major/bin/../lib/gcc/arm-none-eabi/9.2.1/../../../../arm-none-eabi/lib/thumb/v7e-m+fp/hard/crt0.o
_ebss                                             build/startup_stm32l475xx.o
_edata                                            build/startup_stm32l475xx.o
_estack                                           build/startup_stm32l475xx.o
_exit                                             /home1/zhaobaisheng/gcc-arm-none-eabi-9-2019-q4-major/bin/../lib/gcc/arm-none-eabi/9.2.1/../../../../arm-none-eabi/lib/thumb/v7e-m+fp/hard/libnosys.a(_exit.o)
                                                  /home1/zhaobaisheng/gcc-arm-none-eabi-9-2019-q4-major/bin/../lib/gcc/arm-none-eabi/9.2.1/../../../../arm-none-eabi/lib/thumb/v7e-m+fp/hard/libc_nano.a(lib_a-exit.o)
_fini                                             /home1/zhaobaisheng/gcc-arm-none-eabi-9-2019-q4-major/bin/../lib/gcc/arm-none-eabi/9.2.1/thumb/v7e-m+fp/hard/crti.o
_global_impure_ptr                                /home1/zhaobaisheng/gcc-arm-none-eabi-9-2019-q4-major/bin/../lib/gcc/arm-none-eabi/9.2.1/../../../../arm-none-eabi/lib/thumb/v7e-m+fp/hard/libc_nano.a(lib_a-impure.o)
                                                  /home1/zhaobaisheng/gcc-arm-none-eabi-9-2019-q4-major/bin/../lib/gcc/arm-none-eabi/9.2.1/../../../../arm-none-eabi/lib/thumb/v7e-m+fp/hard/libc_nano.a(lib_a-exit.o)
_impure_ptr                                       /home1/zhaobaisheng/gcc-arm-none-eabi-9-2019-q4-major/bin/../lib/gcc/arm-none-eabi/9.2.1/../../../../arm-none-eabi/lib/thumb/v7e-m+fp/hard/libc_nano.a(lib_a-impure.o)
_init                                             /home1/zhaobaisheng/gcc-arm-none-eabi-9-2019-q4-major/bin/../lib/gcc/arm-none-eabi/9.2.1/thumb/v7e-m+fp/hard/crti.o
                                                  /home1/zhaobaisheng/gcc-arm-none-eabi-9-2019-q4-major/bin/../lib/gcc/arm-none-eabi/9.2.1/../../../../arm-none-eabi/lib/thumb/v7e-m+fp/hard/libc_nano.a(lib_a-init.o)
_mainCRTStartup                                   /home1/zhaobaisheng/gcc-arm-none-eabi-9-2019-q4-major/bin/../lib/gcc/arm-none-eabi/9.2.1/../../../../arm-none-eabi/lib/thumb/v7e-m+fp/hard/crt0.o
_sbss                                             build/startup_stm32l475xx.o
_sdata                                            build/startup_stm32l475xx.o
_sidata                                           build/startup_stm32l475xx.o
_start                                            /home1/zhaobaisheng/gcc-arm-none-eabi-9-2019-q4-major/bin/../lib/gcc/arm-none-eabi/9.2.1/../../../../arm-none-eabi/lib/thumb/v7e-m+fp/hard/crt0.o
atexit                                            /home1/zhaobaisheng/gcc-arm-none-eabi-9-2019-q4-major/bin/../lib/gcc/arm-none-eabi/9.2.1/../../../../arm-none-eabi/lib/thumb/v7e-m+fp/hard/crt0.o
exit                                              /home1/zhaobaisheng/gcc-arm-none-eabi-9-2019-q4-major/bin/../lib/gcc/arm-none-eabi/9.2.1/../../../../arm-none-eabi/lib/thumb/v7e-m+fp/hard/libc_nano.a(lib_a-exit.o)
                                                  /home1/zhaobaisheng/gcc-arm-none-eabi-9-2019-q4-major/bin/../lib/gcc/arm-none-eabi/9.2.1/../../../../arm-none-eabi/lib/thumb/v7e-m+fp/hard/crt0.o
g_pfnVectors                                      build/startup_stm32l475xx.o
hardware_init_hook                                /home1/zhaobaisheng/gcc-arm-none-eabi-9-2019-q4-major/bin/../lib/gcc/arm-none-eabi/9.2.1/../../../../arm-none-eabi/lib/thumb/v7e-m+fp/hard/crt0.o
main                                              build/main.o
                                                  build/startup_stm32l475xx.o
                                                  /home1/zhaobaisheng/gcc-arm-none-eabi-9-2019-q4-major/bin/../lib/gcc/arm-none-eabi/9.2.1/../../../../arm-none-eabi/lib/thumb/v7e-m+fp/hard/crt0.o
memset                                            /home1/zhaobaisheng/gcc-arm-none-eabi-9-2019-q4-major/bin/../lib/gcc/arm-none-eabi/9.2.1/../../../../arm-none-eabi/lib/thumb/v7e-m+fp/hard/libc_nano.a(lib_a-memset.o)
                                                  /home1/zhaobaisheng/gcc-arm-none-eabi-9-2019-q4-major/bin/../lib/gcc/arm-none-eabi/9.2.1/../../../../arm-none-eabi/lib/thumb/v7e-m+fp/hard/crt0.o
software_init_hook                                /home1/zhaobaisheng/gcc-arm-none-eabi-9-2019-q4-major/bin/../lib/gcc/arm-none-eabi/9.2.1/../../../../arm-none-eabi/lib/thumb/v7e-m+fp/hard/crt0.o
