:020000040800F2
:1000000000800120CD0100081D0200081D0200082B
:100010001D0200081D0200081D020008000000006B
:100020000000000000000000000000001D020008A9
:100030001D020008000000001D0200081D0200084B
:100040001D0200081D0200081D0200081D02000814
:100050001D0200081D0200081D0200081D02000804
:100060001D0200081D0200081D0200081D020008F4
:100070001D0200081D0200081D0200081D020008E4
:100080001D0200081D0200081D0200081D020008D4
:100090001D0200081D0200081D0200081D020008C4
:1000A0001D0200081D0200081D0200081D020008B4
:1000B0001D0200081D0200081D0200081D020008A4
:1000C0001D0200081D0200081D0200081D02000894
:1000D0001D0200081D0200081D0200081D02000884
:1000E0001D0200081D0200081D0200081D02000874
:1000F0001D0200081D0200081D0200081D02000864
:100100001D0200081D0200081D0200081D02000853
:100110001D0200081D0200081D0200081D02000843
:100120001D0200081D0200081D0200081D02000833
:100130001D0200081D0200081D0200081D02000823
:100140001D0200081D0200081D0200081D02000813
:100150001D0200081D0200081D0200081D02000803
:100160001D0200081D0200081D0200081D020008F3
:100170001D0200081D020008000000000000000031
:080180001D0200081D02000829
:1001880010B5054C237833B9044B13B10448AFF3C9
:1001980000800123237010BD000000200000000033
:1001A8006802000808B5034B1BB103490348AFF3C5
:1001B800008008BD0000000004000020680200085C
:1001C8007047FEE7DFF834D0FFF7FAFF002103E0BD
:1001D8000B4B5B58435004310A480B4B42189A4268
:1001E800F6D30A4A02E0002342F8043B084B9A423D
:1001F800F9D300F011F8FFF7E4FFFEE700800120D3
:1002080090020008000000200000002000000020EC
:100218001C000020FEE7000070B50D4D0D4C641B5E
:10022800A4100026A64209D10B4D0C4C00F018F87A
:10023800641BA4100026A64205D170BD55F8043BE6
:1002480098470136EEE755F8043B98470136F2E740
:10025800800200088002000880020008840200086A
:10026800F8B500BFF8BC08BC9E467047F8B500BF9B
:08027800F8BC08BC9E4670476B
:08028000AD01000800000000C0
:080288008901000800000000DC
:04000005080001CD21
:00000001FF
