
hello.elf:     file format elf32-littlearm


Disassembly of section .text:

08000188 <switch_task-0x14>:
 8000188:	08000430 	.word	0x08000430
 800018c:	20000000 	.word	0x20000000
 8000190:	20000000 	.word	0x20000000
 8000194:	20000000 	.word	0x20000000
 8000198:	20002014 	.word	0x20002014

0800019c <switch_task>:
  
}

void switch_task(uint32_t task_sp){
	
	if(running_task  == 0){
 800019c:	4b0e      	ldr	r3, [pc, #56]	; (80001d8 <switch_task+0x3c>)
 800019e:	681b      	ldr	r3, [r3, #0]
 80001a0:	b953      	cbnz	r3, 80001b8 <switch_task+0x1c>
		psp_stacks[0] = task_sp;
 80001a2:	4b0d      	ldr	r3, [pc, #52]	; (80001d8 <switch_task+0x3c>)
 80001a4:	6058      	str	r0, [r3, #4]
		running_task = 1;
 80001a6:	2201      	movs	r2, #1
 80001a8:	601a      	str	r2, [r3, #0]
		__set_PSP(psp_stacks[running_task]);
 80001aa:	681a      	ldr	r2, [r3, #0]
 80001ac:	eb03 0382 	add.w	r3, r3, r2, lsl #2
 80001b0:	685b      	ldr	r3, [r3, #4]
  \details Assigns the given value to the Process Stack Pointer (PSP).
  \param [in]    topOfProcStack  Process Stack Pointer value to set
 */
__STATIC_FORCEINLINE void __set_PSP(uint32_t topOfProcStack)
{
  __ASM volatile ("MSR psp, %0" : : "r" (topOfProcStack) : );
 80001b2:	f383 8809 	msr	PSP, r3
}
 80001b6:	4770      	bx	lr
	}else if(running_task  == 1){
 80001b8:	4b07      	ldr	r3, [pc, #28]	; (80001d8 <switch_task+0x3c>)
 80001ba:	681b      	ldr	r3, [r3, #0]
 80001bc:	2b01      	cmp	r3, #1
 80001be:	d000      	beq.n	80001c2 <switch_task+0x26>
		psp_stacks[1] = task_sp;
		running_task = 0;
		__set_PSP(psp_stacks[running_task]);
	}
}
 80001c0:	4770      	bx	lr
		psp_stacks[1] = task_sp;
 80001c2:	4b05      	ldr	r3, [pc, #20]	; (80001d8 <switch_task+0x3c>)
 80001c4:	6098      	str	r0, [r3, #8]
		running_task = 0;
 80001c6:	2200      	movs	r2, #0
 80001c8:	601a      	str	r2, [r3, #0]
		__set_PSP(psp_stacks[running_task]);
 80001ca:	681a      	ldr	r2, [r3, #0]
 80001cc:	eb03 0382 	add.w	r3, r3, r2, lsl #2
 80001d0:	685b      	ldr	r3, [r3, #4]
  __ASM volatile ("MSR psp, %0" : : "r" (topOfProcStack) : );
 80001d2:	f383 8809 	msr	PSP, r3
}
 80001d6:	e7f3      	b.n	80001c0 <switch_task+0x24>
 80001d8:	20000000 	.word	0x20000000

080001dc <SystemInit>:
	RCC_CR  |=   1<<3;  //select msi range from RCC_CR[7:4]
 80001dc:	4b0b      	ldr	r3, [pc, #44]	; (800020c <SystemInit+0x30>)
 80001de:	681a      	ldr	r2, [r3, #0]
 80001e0:	f042 0208 	orr.w	r2, r2, #8
 80001e4:	601a      	str	r2, [r3, #0]
	RCC_CR  |=   0x7 << 4;  //configure msi clk as 8mHz
 80001e6:	681a      	ldr	r2, [r3, #0]
 80001e8:	f042 0270 	orr.w	r2, r2, #112	; 0x70
 80001ec:	601a      	str	r2, [r3, #0]
	RCC_CFGR  &= 	~(0x3 << 0);   //select MSI as sys_clk source;
 80001ee:	4908      	ldr	r1, [pc, #32]	; (8000210 <SystemInit+0x34>)
 80001f0:	680a      	ldr	r2, [r1, #0]
 80001f2:	f022 0203 	bic.w	r2, r2, #3
 80001f6:	600a      	str	r2, [r1, #0]
	RCC_CR |=  1<<0; //enable mis clk;
 80001f8:	681a      	ldr	r2, [r3, #0]
 80001fa:	f042 0201 	orr.w	r2, r2, #1
 80001fe:	601a      	str	r2, [r3, #0]
	while( (RCC_CR & 0x02) ==0);   //wait until  MSI clk enabled;
 8000200:	4b02      	ldr	r3, [pc, #8]	; (800020c <SystemInit+0x30>)
 8000202:	681b      	ldr	r3, [r3, #0]
 8000204:	f013 0f02 	tst.w	r3, #2
 8000208:	d0fa      	beq.n	8000200 <SystemInit+0x24>
}
 800020a:	4770      	bx	lr
 800020c:	40021000 	.word	0x40021000
 8000210:	40021008 	.word	0x40021008

08000214 <led_init>:
	RCC_AHB2ENR  |= 1<<4;
 8000214:	4a11      	ldr	r2, [pc, #68]	; (800025c <led_init+0x48>)
 8000216:	6813      	ldr	r3, [r2, #0]
 8000218:	f043 0310 	orr.w	r3, r3, #16
 800021c:	6013      	str	r3, [r2, #0]
	GPIOE_MODER = 0;
 800021e:	4b10      	ldr	r3, [pc, #64]	; (8000260 <led_init+0x4c>)
 8000220:	2200      	movs	r2, #0
 8000222:	601a      	str	r2, [r3, #0]
	GPIOE_MODER |=  (0x01 << 14)  | (0x01<<  (8<<2))  ;   //output
 8000224:	681a      	ldr	r2, [r3, #0]
 8000226:	f442 4280 	orr.w	r2, r2, #16384	; 0x4000
 800022a:	601a      	str	r2, [r3, #0]
	GPIOE_MODER |=  (0x01 << 16)  ;   //output
 800022c:	681a      	ldr	r2, [r3, #0]
 800022e:	f442 3280 	orr.w	r2, r2, #65536	; 0x10000
 8000232:	601a      	str	r2, [r3, #0]
	GPIOE_OTYPER  &=  ~(1<<7);    //push-pull
 8000234:	3304      	adds	r3, #4
 8000236:	681a      	ldr	r2, [r3, #0]
 8000238:	f022 0280 	bic.w	r2, r2, #128	; 0x80
 800023c:	601a      	str	r2, [r3, #0]
	GPIOE_OTYPER  &=  ~(1<<8);    //push-pull
 800023e:	681a      	ldr	r2, [r3, #0]
 8000240:	f422 7280 	bic.w	r2, r2, #256	; 0x100
 8000244:	601a      	str	r2, [r3, #0]
	GPIOE_PUPDR &= ~(0x03 <<7);  //no pull up-down.
 8000246:	3308      	adds	r3, #8
 8000248:	681a      	ldr	r2, [r3, #0]
 800024a:	f422 72c0 	bic.w	r2, r2, #384	; 0x180
 800024e:	601a      	str	r2, [r3, #0]
	GPIOE_PUPDR &= ~(0x03 <<8);  //no pull up-down.
 8000250:	681a      	ldr	r2, [r3, #0]
 8000252:	f422 7240 	bic.w	r2, r2, #768	; 0x300
 8000256:	601a      	str	r2, [r3, #0]
}
 8000258:	4770      	bx	lr
 800025a:	bf00      	nop
 800025c:	4002104c 	.word	0x4002104c
 8000260:	48001000 	.word	0x48001000

08000264 <light_red_led>:
	if(state)
 8000264:	b128      	cbz	r0, 8000272 <light_red_led+0xe>
		GPIOE_ODR   &= ~(1<<7); //light  Red led
 8000266:	4a06      	ldr	r2, [pc, #24]	; (8000280 <light_red_led+0x1c>)
 8000268:	6813      	ldr	r3, [r2, #0]
 800026a:	f023 0380 	bic.w	r3, r3, #128	; 0x80
 800026e:	6013      	str	r3, [r2, #0]
 8000270:	4770      	bx	lr
		GPIOE_ODR  |= 1<<7;
 8000272:	4a03      	ldr	r2, [pc, #12]	; (8000280 <light_red_led+0x1c>)
 8000274:	6813      	ldr	r3, [r2, #0]
 8000276:	f043 0380 	orr.w	r3, r3, #128	; 0x80
 800027a:	6013      	str	r3, [r2, #0]
}
 800027c:	4770      	bx	lr
 800027e:	bf00      	nop
 8000280:	48001014 	.word	0x48001014

08000284 <light_green_led>:
	if(state)
 8000284:	b128      	cbz	r0, 8000292 <light_green_led+0xe>
		GPIOE_ODR   &= ~(1<<8); //light  green led
 8000286:	4a06      	ldr	r2, [pc, #24]	; (80002a0 <light_green_led+0x1c>)
 8000288:	6813      	ldr	r3, [r2, #0]
 800028a:	f423 7380 	bic.w	r3, r3, #256	; 0x100
 800028e:	6013      	str	r3, [r2, #0]
 8000290:	4770      	bx	lr
		GPIOE_ODR  |= 1<<8;
 8000292:	4a03      	ldr	r2, [pc, #12]	; (80002a0 <light_green_led+0x1c>)
 8000294:	6813      	ldr	r3, [r2, #0]
 8000296:	f443 7380 	orr.w	r3, r3, #256	; 0x100
 800029a:	6013      	str	r3, [r2, #0]
}
 800029c:	4770      	bx	lr
 800029e:	bf00      	nop
 80002a0:	48001014 	.word	0x48001014

080002a4 <task1>:
void task1(){
 80002a4:	b508      	push	{r3, lr}
	   light_red_led(0);
 80002a6:	2000      	movs	r0, #0
 80002a8:	f7ff ffdc 	bl	8000264 <light_red_led>
	   light_green_led(1);
 80002ac:	2001      	movs	r0, #1
 80002ae:	f7ff ffe9 	bl	8000284 <light_green_led>
    while(1){
 80002b2:	e7f8      	b.n	80002a6 <task1+0x2>

080002b4 <__libc_init_array>:
void __libc_init_array(){}
 80002b4:	4770      	bx	lr

080002b6 <task0>:
void task0(){
 80002b6:	b508      	push	{r3, lr}
	   light_red_led(1);
 80002b8:	2001      	movs	r0, #1
 80002ba:	f7ff ffd3 	bl	8000264 <light_red_led>
	   light_green_led(0);
 80002be:	2000      	movs	r0, #0
 80002c0:	f7ff ffe0 	bl	8000284 <light_green_led>
   while(1){
 80002c4:	e7f8      	b.n	80002b8 <task0+0x2>

080002c6 <tasks_init>:
   psp_stacks[0] = ( uint32_t *) ( task0_stack + (sizeof task0_stack)  - 8*4);
 80002c6:	490d      	ldr	r1, [pc, #52]	; (80002fc <tasks_init+0x36>)
 80002c8:	4b0d      	ldr	r3, [pc, #52]	; (8000300 <tasks_init+0x3a>)
 80002ca:	604b      	str	r3, [r1, #4]
   *p = 0x01000000;
 80002cc:	f04f 7080 	mov.w	r0, #16777216	; 0x1000000
 80002d0:	61d8      	str	r0, [r3, #28]
   *p = (uint32_t) task1;
 80002d2:	4a0c      	ldr	r2, [pc, #48]	; (8000304 <tasks_init+0x3e>)
 80002d4:	619a      	str	r2, [r3, #24]
   *p = (uint32_t) task1;
 80002d6:	615a      	str	r2, [r3, #20]
   psp_stacks[1] = (int32_t *) ( task1_stack + (sizeof task1_stack)  - 8*4);
 80002d8:	4b0b      	ldr	r3, [pc, #44]	; (8000308 <tasks_init+0x42>)
 80002da:	608b      	str	r3, [r1, #8]
   *p = 0x01000000;
 80002dc:	61d8      	str	r0, [r3, #28]
   *p =  (uint32_t) task1;
 80002de:	619a      	str	r2, [r3, #24]
   *p =  (uint32_t) task1;
 80002e0:	615a      	str	r2, [r3, #20]
   *p =  0x03030303;
 80002e2:	f04f 3203 	mov.w	r2, #50529027	; 0x3030303
 80002e6:	60da      	str	r2, [r3, #12]
   *p =  0x02020202;
 80002e8:	f04f 3202 	mov.w	r2, #33686018	; 0x2020202
 80002ec:	609a      	str	r2, [r3, #8]
   *p =  0x01010101;
 80002ee:	f04f 3201 	mov.w	r2, #16843009	; 0x1010101
 80002f2:	605a      	str	r2, [r3, #4]
   *p =  0x00000000;
 80002f4:	2200      	movs	r2, #0
 80002f6:	601a      	str	r2, [r3, #0]
    running_task = 0;
 80002f8:	600a      	str	r2, [r1, #0]
}
 80002fa:	4770      	bx	lr
 80002fc:	20000000 	.word	0x20000000
 8000300:	20004f94 	.word	0x20004f94
 8000304:	080002a5 	.word	0x080002a5
 8000308:	20003f94 	.word	0x20003f94

0800030c <os_init>:
{
 800030c:	b508      	push	{r3, lr}
  if ((ticks - 1UL) > SysTick_LOAD_RELOAD_Msk)
  {
    return (1UL);                                                   /* Reload value impossible */
  }

  SysTick->LOAD  = (uint32_t)(ticks - 1UL);                         /* set reload register */
 800030e:	4b0c      	ldr	r3, [pc, #48]	; (8000340 <os_init+0x34>)
 8000310:	4a0c      	ldr	r2, [pc, #48]	; (8000344 <os_init+0x38>)
 8000312:	605a      	str	r2, [r3, #4]
    SCB->SHP[(((uint32_t)IRQn) & 0xFUL)-4UL] = (uint8_t)((priority << (8U - __NVIC_PRIO_BITS)) & (uint32_t)0xFFUL);
 8000314:	4a0c      	ldr	r2, [pc, #48]	; (8000348 <os_init+0x3c>)
 8000316:	21f0      	movs	r1, #240	; 0xf0
 8000318:	f882 1023 	strb.w	r1, [r2, #35]	; 0x23
  NVIC_SetPriority (SysTick_IRQn, (1UL << __NVIC_PRIO_BITS) - 1UL); /* set Priority for Systick Interrupt */
  SysTick->VAL   = 0UL;                                             /* Load the SysTick Counter Value */
 800031c:	2000      	movs	r0, #0
 800031e:	6098      	str	r0, [r3, #8]
  SysTick->CTRL  = SysTick_CTRL_CLKSOURCE_Msk |
 8000320:	2007      	movs	r0, #7
 8000322:	6018      	str	r0, [r3, #0]
    SCB->SHP[(((uint32_t)IRQn) & 0xFUL)-4UL] = (uint8_t)((priority << (8U - __NVIC_PRIO_BITS)) & (uint32_t)0xFFUL);
 8000324:	f882 1022 	strb.w	r1, [r2, #34]	; 0x22
    __set_PSP(psp_stacks[0] + 16);
 8000328:	4b08      	ldr	r3, [pc, #32]	; (800034c <os_init+0x40>)
 800032a:	685b      	ldr	r3, [r3, #4]
 800032c:	3340      	adds	r3, #64	; 0x40
 800032e:	f383 8809 	msr	PSP, r3
  __ASM volatile ("MSR control, %0" : : "r" (control) : "memory");
 8000332:	2303      	movs	r3, #3
 8000334:	f383 8814 	msr	CONTROL, r3
	__asm volatile (
 8000338:	f3bf 8f6f 	isb	sy
	task0();
 800033c:	f7ff ffbb 	bl	80002b6 <task0>
 8000340:	e000e010 	.word	0xe000e010
 8000344:	007a11ff 	.word	0x007a11ff
 8000348:	e000ed00 	.word	0xe000ed00
 800034c:	20000000 	.word	0x20000000

08000350 <main>:
int main(){
 8000350:	b508      	push	{r3, lr}
    SystemInit();
 8000352:	f7ff ff43 	bl	80001dc <SystemInit>
    led_init();
 8000356:	f7ff ff5d 	bl	8000214 <led_init>
    light_red_led(0);
 800035a:	2000      	movs	r0, #0
 800035c:	f7ff ff82 	bl	8000264 <light_red_led>
    light_green_led(0);
 8000360:	2000      	movs	r0, #0
 8000362:	f7ff ff8f 	bl	8000284 <light_green_led>
	tasks_init();
 8000366:	f7ff ffae 	bl	80002c6 <tasks_init>
    os_init();
 800036a:	f7ff ffcf 	bl	800030c <os_init>

0800036e <SVC_Handler>:
}
 800036e:	4770      	bx	lr

08000370 <PendSV_Handler>:
  __ASM volatile ("MRS %0, psp"  : "=r" (result) );
 8000370:	f3ef 8209 	mrs	r2, PSP

volatile uint32_t psp;
volatile uint32_t msp;

void PendSV_Handler(){
  psp = __get_PSP();
 8000374:	4b0d      	ldr	r3, [pc, #52]	; (80003ac <PendSV_Handler+0x3c>)
 8000376:	60da      	str	r2, [r3, #12]
 */
__STATIC_FORCEINLINE uint32_t __get_MSP(void)
{
  uint32_t result;

  __ASM volatile ("MRS %0, msp" : "=r" (result) );
 8000378:	f3ef 8208 	mrs	r2, MSP
  msp = __get_MSP();
 800037c:	611a      	str	r2, [r3, #16]
  
  if(psp == 1 || msp == 1 )
 800037e:	68db      	ldr	r3, [r3, #12]
 8000380:	2b01      	cmp	r3, #1
 8000382:	d012      	beq.n	80003aa <PendSV_Handler+0x3a>
 8000384:	4b09      	ldr	r3, [pc, #36]	; (80003ac <PendSV_Handler+0x3c>)
 8000386:	691b      	ldr	r3, [r3, #16]
 8000388:	2b01      	cmp	r3, #1
 800038a:	d00e      	beq.n	80003aa <PendSV_Handler+0x3a>
       return ;
   

     __asm volatile (
 800038c:	f3ef 8009 	mrs	r0, PSP
 8000390:	f3bf 8f6f 	isb	sy
 8000394:	e92d 4ff0 	stmdb	sp!, {r4, r5, r6, r7, r8, r9, sl, fp, lr}
 8000398:	f7ff ff00 	bl	800019c <switch_task>
 800039c:	e8bd 4ff0 	ldmia.w	sp!, {r4, r5, r6, r7, r8, r9, sl, fp, lr}
 80003a0:	f3ef 8009 	mrs	r0, PSP
 80003a4:	f06f 0102 	mvn.w	r1, #2
 80003a8:	4708      	bx	r1
		"ldr r1, =0xFFFFFFFD;"
		"bx  r1;"
		:: "i"(switch_task)
	);

}
 80003aa:	4770      	bx	lr
 80003ac:	20000000 	.word	0x20000000

080003b0 <SysTick_Handler>:
  __ASM volatile ("MRS %0, psp"  : "=r" (result) );
 80003b0:	f3ef 8209 	mrs	r2, PSP


void SysTick_Handler(){
  psp = __get_PSP();
 80003b4:	4b07      	ldr	r3, [pc, #28]	; (80003d4 <SysTick_Handler+0x24>)
 80003b6:	60da      	str	r2, [r3, #12]
  __ASM volatile ("MRS %0, msp" : "=r" (result) );
 80003b8:	f3ef 8208 	mrs	r2, MSP
  msp = __get_MSP();
 80003bc:	611a      	str	r2, [r3, #16]
    SCB->ICSR  |= SCB_ICSR_PENDSVSET_Msk;
 80003be:	4906      	ldr	r1, [pc, #24]	; (80003d8 <SysTick_Handler+0x28>)
 80003c0:	684a      	ldr	r2, [r1, #4]
 80003c2:	f042 5280 	orr.w	r2, r2, #268435456	; 0x10000000
 80003c6:	604a      	str	r2, [r1, #4]
  if(psp == 1 || msp == 1 )
 80003c8:	68db      	ldr	r3, [r3, #12]
 80003ca:	2b01      	cmp	r3, #1
 80003cc:	d001      	beq.n	80003d2 <SysTick_Handler+0x22>
 80003ce:	4b01      	ldr	r3, [pc, #4]	; (80003d4 <SysTick_Handler+0x24>)
 80003d0:	691b      	ldr	r3, [r3, #16]
       return ;
}
 80003d2:	4770      	bx	lr
 80003d4:	20000000 	.word	0x20000000
 80003d8:	e000ed00 	.word	0xe000ed00

080003dc <Reset_Handler>:

    .section	.text.Reset_Handler
	.weak	Reset_Handler
	.type	Reset_Handler, %function
Reset_Handler:
  ldr   sp, =_estack    /* Set stack pointer */
 80003dc:	f8df d034 	ldr.w	sp, [pc, #52]	; 8000414 <LoopForever+0x2>

/* Call the clock system initialization function.*/
    bl  SystemInit
 80003e0:	f7ff fefc 	bl	80001dc <SystemInit>

/* Copy the data segment initializers from flash to SRAM */
  movs	r1, #0
 80003e4:	2100      	movs	r1, #0
  b	LoopCopyDataInit
 80003e6:	e003      	b.n	80003f0 <LoopCopyDataInit>

080003e8 <CopyDataInit>:

CopyDataInit:
	ldr	r3, =_sidata
 80003e8:	4b0b      	ldr	r3, [pc, #44]	; (8000418 <LoopForever+0x6>)
	ldr	r3, [r3, r1]
 80003ea:	585b      	ldr	r3, [r3, r1]
	str	r3, [r0, r1]
 80003ec:	5043      	str	r3, [r0, r1]
	adds	r1, r1, #4
 80003ee:	3104      	adds	r1, #4

080003f0 <LoopCopyDataInit>:

LoopCopyDataInit:
	ldr	r0, =_sdata
 80003f0:	480a      	ldr	r0, [pc, #40]	; (800041c <LoopForever+0xa>)
	ldr	r3, =_edata
 80003f2:	4b0b      	ldr	r3, [pc, #44]	; (8000420 <LoopForever+0xe>)
	adds	r2, r0, r1
 80003f4:	1842      	adds	r2, r0, r1
	cmp	r2, r3
 80003f6:	429a      	cmp	r2, r3
	bcc	CopyDataInit
 80003f8:	d3f6      	bcc.n	80003e8 <CopyDataInit>
	ldr	r2, =_sbss
 80003fa:	4a0a      	ldr	r2, [pc, #40]	; (8000424 <LoopForever+0x12>)
	b	LoopFillZerobss
 80003fc:	e002      	b.n	8000404 <LoopFillZerobss>

080003fe <FillZerobss>:
/* Zero fill the bss segment. */
FillZerobss:
	movs	r3, #0
 80003fe:	2300      	movs	r3, #0
	str	r3, [r2], #4
 8000400:	f842 3b04 	str.w	r3, [r2], #4

08000404 <LoopFillZerobss>:

LoopFillZerobss:
	ldr	r3, = _ebss
 8000404:	4b08      	ldr	r3, [pc, #32]	; (8000428 <LoopForever+0x16>)
	cmp	r2, r3
 8000406:	429a      	cmp	r2, r3
	bcc	FillZerobss
 8000408:	d3f9      	bcc.n	80003fe <FillZerobss>

/* Call static constructors */
    bl __libc_init_array
 800040a:	f7ff ff53 	bl	80002b4 <__libc_init_array>
/* Call the application's entry point.*/
	bl	main
 800040e:	f7ff ff9f 	bl	8000350 <main>

08000412 <LoopForever>:

LoopForever:
    b LoopForever
 8000412:	e7fe      	b.n	8000412 <LoopForever>
  ldr   sp, =_estack    /* Set stack pointer */
 8000414:	20018000 	.word	0x20018000
	ldr	r3, =_sidata
 8000418:	08000430 	.word	0x08000430
	ldr	r0, =_sdata
 800041c:	20000000 	.word	0x20000000
	ldr	r3, =_edata
 8000420:	20000000 	.word	0x20000000
	ldr	r2, =_sbss
 8000424:	20000000 	.word	0x20000000
	ldr	r3, = _ebss
 8000428:	20002014 	.word	0x20002014

0800042c <ADC1_2_IRQHandler>:
 * @retval : None
*/
    .section	.text.Default_Handler,"ax",%progbits
Default_Handler:
Infinite_Loop:
	b	Infinite_Loop
 800042c:	e7fe      	b.n	800042c <ADC1_2_IRQHandler>
	...
